{
  "_format": "hh-sol-artifact-1",
  "contractName": "TodoList2",
  "sourceName": "contracts/TodoList2.sol",
  "abi": [
    {
      "anonymous": false,
      "inputs": [
        {
          "indexed": false,
          "internalType": "string",
          "name": "username",
          "type": "string"
        },
        {
          "indexed": false,
          "internalType": "uint256",
          "name": "index",
          "type": "uint256"
        },
        {
          "indexed": false,
          "internalType": "uint256",
          "name": "amount",
          "type": "uint256"
        },
        {
          "indexed": false,
          "internalType": "address",
          "name": "sender",
          "type": "address"
        },
        {
          "indexed": false,
          "internalType": "string",
          "name": "description",
          "type": "string"
        },
        {
          "indexed": false,
          "internalType": "string",
          "name": "image",
          "type": "string"
        }
      ],
      "name": "TaskCreated",
      "type": "event"
    },
    {
      "anonymous": false,
      "inputs": [
        {
          "indexed": false,
          "internalType": "string",
          "name": "username",
          "type": "string"
        },
        {
          "indexed": false,
          "internalType": "uint256",
          "name": "index",
          "type": "uint256"
        },
        {
          "indexed": false,
          "internalType": "uint256",
          "name": "amount",
          "type": "uint256"
        },
        {
          "indexed": false,
          "internalType": "address",
          "name": "sender",
          "type": "address"
        }
      ],
      "name": "TaskDeleted",
      "type": "event"
    },
    {
      "anonymous": false,
      "inputs": [
        {
          "indexed": false,
          "internalType": "string",
          "name": "username",
          "type": "string"
        },
        {
          "indexed": false,
          "internalType": "uint256",
          "name": "index",
          "type": "uint256"
        },
        {
          "indexed": false,
          "internalType": "string",
          "name": "content",
          "type": "string"
        },
        {
          "indexed": false,
          "internalType": "enum TodoList2.TaskStatus",
          "name": "status",
          "type": "uint8"
        },
        {
          "indexed": false,
          "internalType": "string",
          "name": "description",
          "type": "string"
        },
        {
          "indexed": false,
          "internalType": "string",
          "name": "image",
          "type": "string"
        }
      ],
      "name": "TaskUpdated",
      "type": "event"
    },
    {
      "anonymous": false,
      "inputs": [
        {
          "indexed": false,
          "internalType": "string",
          "name": "username",
          "type": "string"
        }
      ],
      "name": "UserCreated",
      "type": "event"
    },
    {
      "inputs": [
        {
          "internalType": "string",
          "name": "_username",
          "type": "string"
        },
        {
          "internalType": "string",
          "name": "_content",
          "type": "string"
        },
        {
          "internalType": "string",
          "name": "_description",
          "type": "string"
        },
        {
          "internalType": "string",
          "name": "_image",
          "type": "string"
        }
      ],
      "name": "createTask",
      "outputs": [],
      "stateMutability": "payable",
      "type": "function"
    },
    {
      "inputs": [
        {
          "internalType": "string",
          "name": "_username",
          "type": "string"
        },
        {
          "internalType": "string",
          "name": "_password",
          "type": "string"
        }
      ],
      "name": "createUser",
      "outputs": [],
      "stateMutability": "nonpayable",
      "type": "function"
    },
    {
      "inputs": [
        {
          "internalType": "string",
          "name": "_username",
          "type": "string"
        },
        {
          "internalType": "uint256",
          "name": "_index",
          "type": "uint256"
        }
      ],
      "name": "deleteTask",
      "outputs": [],
      "stateMutability": "nonpayable",
      "type": "function"
    },
    {
      "inputs": [],
      "name": "getContractInfo",
      "outputs": [
        {
          "internalType": "address",
          "name": "",
          "type": "address"
        },
        {
          "internalType": "uint256",
          "name": "",
          "type": "uint256"
        }
      ],
      "stateMutability": "view",
      "type": "function"
    },
    {
      "inputs": [
        {
          "internalType": "string",
          "name": "_username",
          "type": "string"
        },
        {
          "internalType": "uint256",
          "name": "_index",
          "type": "uint256"
        }
      ],
      "name": "getTaskByIndex",
      "outputs": [
        {
          "components": [
            {
              "internalType": "uint256",
              "name": "index",
              "type": "uint256"
            },
            {
              "internalType": "string",
              "name": "content",
              "type": "string"
            },
            {
              "internalType": "enum TodoList2.TaskStatus",
              "name": "status",
              "type": "uint8"
            },
            {
              "internalType": "uint256",
              "name": "amount",
              "type": "uint256"
            },
            {
              "internalType": "address",
              "name": "sender",
              "type": "address"
            },
            {
              "internalType": "string",
              "name": "description",
              "type": "string"
            },
            {
              "internalType": "string",
              "name": "image",
              "type": "string"
            }
          ],
          "internalType": "struct TodoList2.Task",
          "name": "",
          "type": "tuple"
        }
      ],
      "stateMutability": "view",
      "type": "function"
    },
    {
      "inputs": [
        {
          "internalType": "string",
          "name": "_username",
          "type": "string"
        }
      ],
      "name": "getUserTasks",
      "outputs": [
        {
          "components": [
            {
              "internalType": "uint256",
              "name": "index",
              "type": "uint256"
            },
            {
              "internalType": "string",
              "name": "content",
              "type": "string"
            },
            {
              "internalType": "enum TodoList2.TaskStatus",
              "name": "status",
              "type": "uint8"
            },
            {
              "internalType": "uint256",
              "name": "amount",
              "type": "uint256"
            },
            {
              "internalType": "address",
              "name": "sender",
              "type": "address"
            },
            {
              "internalType": "string",
              "name": "description",
              "type": "string"
            },
            {
              "internalType": "string",
              "name": "image",
              "type": "string"
            }
          ],
          "internalType": "struct TodoList2.TaskObject[]",
          "name": "",
          "type": "tuple[]"
        }
      ],
      "stateMutability": "view",
      "type": "function"
    },
    {
      "inputs": [
        {
          "internalType": "string",
          "name": "_username",
          "type": "string"
        },
        {
          "internalType": "string",
          "name": "_password",
          "type": "string"
        }
      ],
      "name": "login",
      "outputs": [
        {
          "internalType": "bool",
          "name": "",
          "type": "bool"
        }
      ],
      "stateMutability": "view",
      "type": "function"
    },
    {
      "inputs": [
        {
          "internalType": "string",
          "name": "_username",
          "type": "string"
        },
        {
          "internalType": "uint256",
          "name": "_index",
          "type": "uint256"
        },
        {
          "internalType": "string",
          "name": "_content",
          "type": "string"
        },
        {
          "internalType": "enum TodoList2.TaskStatus",
          "name": "_status",
          "type": "uint8"
        },
        {
          "internalType": "string",
          "name": "_description",
          "type": "string"
        },
        {
          "internalType": "string",
          "name": "_image",
          "type": "string"
        }
      ],
      "name": "updateTask",
      "outputs": [],
      "stateMutability": "nonpayable",
      "type": "function"
    }
  ],
  "bytecode": "0x608060405234801561001057600080fd5b5061240d806100206000396000f3fe60806040526004361061007b5760003560e01c806372a9f8191161004e57806372a9f819146101605780637cc1f8671461017c57806387b162b5146101a8578063c448feaf146101d15761007b565b80630ae799451461008057806338b818c8146100bd57806358467dbc146100fa5780636647372e14610137575b600080fd5b34801561008c57600080fd5b506100a760048036038101906100a29190611661565b6101fa565b6040516100b4919061196f565b60405180910390f35b3480156100c957600080fd5b506100e460048036038101906100df91906119bd565b610589565b6040516100f19190611ac3565b60405180910390f35b34801561010657600080fd5b50610121600480360381019061011c9190611ae5565b6108e8565b60405161012e9190611b78565b60405180910390f35b34801561014357600080fd5b5061015e60048036038101906101599190611bb8565b61098a565b005b61017a60048036038101906101759190611cb5565b610b32565b005b34801561018857600080fd5b50610191610db2565b60405161019f929190611daa565b60405180910390f35b3480156101b457600080fd5b506101cf60048036038101906101ca9190611ae5565b610dbf565b005b3480156101dd57600080fd5b506101f860048036038101906101f391906119bd565b610ebd565b005b60606000808360405161020d9190611e0f565b90815260200160405180910390209050600081600001805461022e90611e55565b90501415610271576040517f08c379a000000000000000000000000000000000000000000000000000000000815260040161026890611ee4565b60405180910390fd5b6000816002018054905067ffffffffffffffff81111561029457610293611536565b5b6040519080825280602002602001820160405280156102cd57816020015b6102ba6112cd565b8152602001906001900390816102b25790505b50905060005b826002018054905081101561057e5760008360020182815481106102fa576102f9611f04565b5b9060005260206000209060070201905060006040518060e001604052808360000154815260200183600101805461033090611e55565b80601f016020809104026020016040519081016040528092919081815260200182805461035c90611e55565b80156103a95780601f1061037e576101008083540402835291602001916103a9565b820191906000526020600020905b81548152906001019060200180831161038c57829003601f168201915b505050505081526020018360020160009054906101000a900460ff1660028111156103d7576103d6611777565b5b8152602001836003015481526020018360040160009054906101000a900473ffffffffffffffffffffffffffffffffffffffff1673ffffffffffffffffffffffffffffffffffffffff16815260200183600501805461043590611e55565b80601f016020809104026020016040519081016040528092919081815260200182805461046190611e55565b80156104ae5780601f10610483576101008083540402835291602001916104ae565b820191906000526020600020905b81548152906001019060200180831161049157829003601f168201915b505050505081526020018360060180546104c790611e55565b80601f01602080910402602001604051908101604052809291908181526020018280546104f390611e55565b80156105405780601f1061051557610100808354040283529160200191610540565b820191906000526020600020905b81548152906001019060200180831161052357829003601f168201915b505050505081525090508084848151811061055e5761055d611f04565b5b60200260200101819052505050808061057690611f62565b9150506102d3565b508092505050919050565b610591611332565b600080846040516105a29190611e0f565b9081526020016040518091039020905060008160000180546105c390611e55565b90501415610606576040517f08c379a00000000000000000000000000000000000000000000000000000000081526004016105fd90611ee4565b60405180910390fd5b8060020180549050831061064f576040517f08c379a000000000000000000000000000000000000000000000000000000000815260040161064690611ff7565b60405180910390fd5b600081600201848154811061066757610666611f04565b5b90600052602060002090600702019050806040518060e00160405290816000820154815260200160018201805461069d90611e55565b80601f01602080910402602001604051908101604052809291908181526020018280546106c990611e55565b80156107165780601f106106eb57610100808354040283529160200191610716565b820191906000526020600020905b8154815290600101906020018083116106f957829003601f168201915b505050505081526020016002820160009054906101000a900460ff16600281111561074457610743611777565b5b600281111561075657610755611777565b5b8152602001600382015481526020016004820160009054906101000a900473ffffffffffffffffffffffffffffffffffffffff1673ffffffffffffffffffffffffffffffffffffffff1673ffffffffffffffffffffffffffffffffffffffff1681526020016005820180546107ca90611e55565b80601f01602080910402602001604051908101604052809291908181526020018280546107f690611e55565b80156108435780601f1061081857610100808354040283529160200191610843565b820191906000526020600020905b81548152906001019060200180831161082657829003601f168201915b5050505050815260200160068201805461085c90611e55565b80601f016020809104026020016040519081016040528092919081815260200182805461088890611e55565b80156108d55780601f106108aa576101008083540402835291602001916108d5565b820191906000526020600020905b8154815290600101906020018083116108b857829003601f168201915b5050505050815250509250505092915050565b6000806000846040516108fb9190611e0f565b90815260200160405180910390209050600081600001805461091c90611e55565b9050141561095f576040517f08c379a000000000000000000000000000000000000000000000000000000000815260040161095690611ee4565b60405180910390fd5b82805190602001208160010160405161097891906120b6565b60405180910390201491505092915050565b6000808760405161099b9190611e0f565b9081526020016040518091039020905060008160000180546109bc90611e55565b905014156109ff576040517f08c379a00000000000000000000000000000000000000000000000000000000081526004016109f690611ee4565b60405180910390fd5b80600201805490508610610a48576040517f08c379a0000000000000000000000000000000000000000000000000000000008152600401610a3f90611ff7565b60405180910390fd5b6000816002018781548110610a6057610a5f611f04565b5b9060005260206000209060070201905085816001019080519060200190610a88929190611397565b50848160020160006101000a81548160ff02191690836002811115610ab057610aaf611777565b5b021790555083816005019080519060200190610acd929190611397565b5082816006019080519060200190610ae6929190611397565b507f6fe5d5a04f9b6a1b1756e436573d2086dba3e6f3e6c653abc61f1aceacde5822888888888888604051610b2096959493929190612115565b60405180910390a15050505050505050565b60008085604051610b439190611e0f565b908152602001604051809103902090506000816000018054610b6490611e55565b90501415610ba7576040517f08c379a0000000000000000000000000000000000000000000000000000000008152600401610b9e90611ee4565b60405180910390fd5b60003411610bea576040517f08c379a0000000000000000000000000000000000000000000000000000000008152600401610be190612204565b60405180910390fd5b60008160020180549050905060006040518060e0016040528083815260200187815260200160006002811115610c2357610c22611777565b5b81526020013481526020013373ffffffffffffffffffffffffffffffffffffffff16815260200186815260200185815250905082600201819080600181540180825580915050600190039060005260206000209060070201600090919091909150600082015181600001556020820151816001019080519060200190610caa929190611397565b5060408201518160020160006101000a81548160ff02191690836002811115610cd657610cd5611777565b5b02179055506060820151816003015560808201518160040160006101000a81548173ffffffffffffffffffffffffffffffffffffffff021916908373ffffffffffffffffffffffffffffffffffffffff16021790555060a0820151816005019080519060200190610d48929190611397565b5060c0820151816006019080519060200190610d65929190611397565b5050507fa8b3ffd119237bff0b026a5d8f6863b39856d0d4720398fa24736672db5acf82878334338989604051610da196959493929190612224565b60405180910390a150505050505050565b6000803047915091509091565b60008083604051610dd09190611e0f565b90815260200160405180910390206000018054610dec90611e55565b905014610e2e576040517f08c379a0000000000000000000000000000000000000000000000000000000008152600401610e25906122e6565b60405180910390fd5b60008083604051610e3f9190611e0f565b9081526020016040518091039020905082816000019080519060200190610e67929190611397565b5081816001019080519060200190610e80929190611397565b507f56b0a2dda7952cd07f438433182565929ba3aba4c3404a7d29a0840ac6284da483604051610eb09190612306565b60405180910390a1505050565b60008083604051610ece9190611e0f565b908152602001604051809103902090506000816000018054610eef90611e55565b90501415610f32576040517f08c379a0000000000000000000000000000000000000000000000000000000008152600401610f2990611ee4565b60405180910390fd5b80600201805490508210610f7b576040517f08c379a0000000000000000000000000000000000000000000000000000000008152600401610f7290611ff7565b60405180910390fd5b6000816002018381548110610f9357610f92611f04565b5b906000526020600020906007020190508060040160009054906101000a900473ffffffffffffffffffffffffffffffffffffffff1673ffffffffffffffffffffffffffffffffffffffff166108fc82600301549081150290604051600060405180830381858888f19350505050158015611011573d6000803e3d6000fd5b506000600183600201805490506110289190612328565b90508260020181815481106110405761103f611f04565b5b906000526020600020906007020183600201858154811061106457611063611f04565b5b906000526020600020906007020160008201548160000155600182018160010190805461109090611e55565b61109b92919061141d565b506002820160009054906101000a900460ff168160020160006101000a81548160ff021916908360028111156110d4576110d3611777565b5b0217905550600382015481600301556004820160009054906101000a900473ffffffffffffffffffffffffffffffffffffffff168160040160006101000a81548173ffffffffffffffffffffffffffffffffffffffff021916908373ffffffffffffffffffffffffffffffffffffffff160217905550600582018160050190805461115e90611e55565b61116992919061141d565b50600682018160060190805461117e90611e55565b61118992919061141d565b50905050838360020185815481106111a4576111a3611f04565b5b906000526020600020906007020160000181905550826002018054806111cd576111cc61235c565b5b60019003818190600052602060002090600702016000808201600090556001820160006111fa91906114aa565b6002820160006101000a81549060ff021916905560038201600090556004820160006101000a81549073ffffffffffffffffffffffffffffffffffffffff021916905560058201600061124d91906114aa565b60068201600061125d91906114aa565b505090557f7aca5f806dd46d14d6e6641bee21c9b0d94d697d48d4e45423861d4348fdb1de858584600301548560040160009054906101000a900473ffffffffffffffffffffffffffffffffffffffff166040516112be949392919061238b565b60405180910390a15050505050565b6040518060e001604052806000815260200160608152602001600060028111156112fa576112f9611777565b5b815260200160008152602001600073ffffffffffffffffffffffffffffffffffffffff16815260200160608152602001606081525090565b6040518060e0016040528060008152602001606081526020016000600281111561135f5761135e611777565b5b815260200160008152602001600073ffffffffffffffffffffffffffffffffffffffff16815260200160608152602001606081525090565b8280546113a390611e55565b90600052602060002090601f0160209004810192826113c5576000855561140c565b82601f106113de57805160ff191683800117855561140c565b8280016001018555821561140c579182015b8281111561140b5782518255916020019190600101906113f0565b5b50905061141991906114ea565b5090565b82805461142990611e55565b90600052602060002090601f01602090048101928261144b5760008555611499565b82601f1061145c5780548555611499565b8280016001018555821561149957600052602060002091601f016020900482015b8281111561149857825482559160010191906001019061147d565b5b5090506114a691906114ea565b5090565b5080546114b690611e55565b6000825580601f106114c857506114e7565b601f0160209004906000526020600020908101906114e691906114ea565b5b50565b5b808211156115035760008160009055506001016114eb565b5090565b6000604051905090565b600080fd5b600080fd5b600080fd5b600080fd5b6000601f19601f8301169050919050565b7f4e487b7100000000000000000000000000000000000000000000000000000000600052604160045260246000fd5b61156e82611525565b810181811067ffffffffffffffff8211171561158d5761158c611536565b5b80604052505050565b60006115a0611507565b90506115ac8282611565565b919050565b600067ffffffffffffffff8211156115cc576115cb611536565b5b6115d582611525565b9050602081019050919050565b82818337600083830152505050565b60006116046115ff846115b1565b611596565b9050828152602081018484840111156116205761161f611520565b5b61162b8482856115e2565b509392505050565b600082601f8301126116485761164761151b565b5b81356116588482602086016115f1565b91505092915050565b60006020828403121561167757611676611511565b5b600082013567ffffffffffffffff81111561169557611694611516565b5b6116a184828501611633565b91505092915050565b600081519050919050565b600082825260208201905092915050565b6000819050602082019050919050565b6000819050919050565b6116e9816116d6565b82525050565b600081519050919050565b600082825260208201905092915050565b60005b8381101561172957808201518184015260208101905061170e565b83811115611738576000848401525b50505050565b6000611749826116ef565b61175381856116fa565b935061176381856020860161170b565b61176c81611525565b840191505092915050565b7f4e487b7100000000000000000000000000000000000000000000000000000000600052602160045260246000fd5b600381106117b7576117b6611777565b5b50565b60008190506117c8826117a6565b919050565b60006117d8826117ba565b9050919050565b6117e8816117cd565b82525050565b600073ffffffffffffffffffffffffffffffffffffffff82169050919050565b6000611819826117ee565b9050919050565b6118298161180e565b82525050565b600060e08301600083015161184760008601826116e0565b506020830151848203602086015261185f828261173e565b915050604083015161187460408601826117df565b50606083015161188760608601826116e0565b50608083015161189a6080860182611820565b5060a083015184820360a08601526118b2828261173e565b91505060c083015184820360c08601526118cc828261173e565b9150508091505092915050565b60006118e5838361182f565b905092915050565b6000602082019050919050565b6000611905826116aa565b61190f81856116b5565b935083602082028501611921856116c6565b8060005b8581101561195d578484038952815161193e85826118d9565b9450611949836118ed565b925060208a01995050600181019050611925565b50829750879550505050505092915050565b6000602082019050818103600083015261198981846118fa565b905092915050565b61199a816116d6565b81146119a557600080fd5b50565b6000813590506119b781611991565b92915050565b600080604083850312156119d4576119d3611511565b5b600083013567ffffffffffffffff8111156119f2576119f1611516565b5b6119fe85828601611633565b9250506020611a0f858286016119a8565b9150509250929050565b600060e083016000830151611a3160008601826116e0565b5060208301518482036020860152611a49828261173e565b9150506040830151611a5e60408601826117df565b506060830151611a7160608601826116e0565b506080830151611a846080860182611820565b5060a083015184820360a0860152611a9c828261173e565b91505060c083015184820360c0860152611ab6828261173e565b9150508091505092915050565b60006020820190508181036000830152611add8184611a19565b905092915050565b60008060408385031215611afc57611afb611511565b5b600083013567ffffffffffffffff811115611b1a57611b19611516565b5b611b2685828601611633565b925050602083013567ffffffffffffffff811115611b4757611b46611516565b5b611b5385828601611633565b9150509250929050565b60008115159050919050565b611b7281611b5d565b82525050565b6000602082019050611b8d6000830184611b69565b92915050565b60038110611ba057600080fd5b50565b600081359050611bb281611b93565b92915050565b60008060008060008060c08789031215611bd557611bd4611511565b5b600087013567ffffffffffffffff811115611bf357611bf2611516565b5b611bff89828a01611633565b9650506020611c1089828a016119a8565b955050604087013567ffffffffffffffff811115611c3157611c30611516565b5b611c3d89828a01611633565b9450506060611c4e89828a01611ba3565b935050608087013567ffffffffffffffff811115611c6f57611c6e611516565b5b611c7b89828a01611633565b92505060a087013567ffffffffffffffff811115611c9c57611c9b611516565b5b611ca889828a01611633565b9150509295509295509295565b60008060008060808587031215611ccf57611cce611511565b5b600085013567ffffffffffffffff811115611ced57611cec611516565b5b611cf987828801611633565b945050602085013567ffffffffffffffff811115611d1a57611d19611516565b5b611d2687828801611633565b935050604085013567ffffffffffffffff811115611d4757611d46611516565b5b611d5387828801611633565b925050606085013567ffffffffffffffff811115611d7457611d73611516565b5b611d8087828801611633565b91505092959194509250565b611d958161180e565b82525050565b611da4816116d6565b82525050565b6000604082019050611dbf6000830185611d8c565b611dcc6020830184611d9b565b9392505050565b600081905092915050565b6000611de9826116ef565b611df38185611dd3565b9350611e0381856020860161170b565b80840191505092915050565b6000611e1b8284611dde565b915081905092915050565b7f4e487b7100000000000000000000000000000000000000000000000000000000600052602260045260246000fd5b60006002820490506001821680611e6d57607f821691505b60208210811415611e8157611e80611e26565b5b50919050565b600082825260208201905092915050565b7f55736572206e6f7420666f756e64000000000000000000000000000000000000600082015250565b6000611ece600e83611e87565b9150611ed982611e98565b602082019050919050565b60006020820190508181036000830152611efd81611ec1565b9050919050565b7f4e487b7100000000000000000000000000000000000000000000000000000000600052603260045260246000fd5b7f4e487b7100000000000000000000000000000000000000000000000000000000600052601160045260246000fd5b6000611f6d826116d6565b91507fffffffffffffffffffffffffffffffffffffffffffffffffffffffffffffffff821415611fa057611f9f611f33565b5b600182019050919050565b7f496e76616c6964207461736b20696e6465780000000000000000000000000000600082015250565b6000611fe1601283611e87565b9150611fec82611fab565b602082019050919050565b6000602082019050818103600083015261201081611fd4565b9050919050565b600081905092915050565b60008190508160005260206000209050919050565b6000815461204481611e55565b61204e8186612017565b94506001821660008114612069576001811461207a576120ad565b60ff198316865281860193506120ad565b61208385612022565b60005b838110156120a557815481890152600182019150602081019050612086565b838801955050505b50505092915050565b60006120c28284612037565b915081905092915050565b60006120d8826116ef565b6120e28185611e87565b93506120f281856020860161170b565b6120fb81611525565b840191505092915050565b61210f816117cd565b82525050565b600060c082019050818103600083015261212f81896120cd565b905061213e6020830188611d9b565b818103604083015261215081876120cd565b905061215f6060830186612106565b818103608083015261217181856120cd565b905081810360a083015261218581846120cd565b9050979650505050505050565b7f506c656173652073656e6420736f6d6520657468657220746f2063726561746560008201527f206120746f646f206c6973740000000000000000000000000000000000000000602082015250565b60006121ee602c83611e87565b91506121f982612192565b604082019050919050565b6000602082019050818103600083015261221d816121e1565b9050919050565b600060c082019050818103600083015261223e81896120cd565b905061224d6020830188611d9b565b61225a6040830187611d9b565b6122676060830186611d8c565b818103608083015261227981856120cd565b905081810360a083015261228d81846120cd565b9050979650505050505050565b7f557365726e616d6520616c726561647920657869737473000000000000000000600082015250565b60006122d0601783611e87565b91506122db8261229a565b602082019050919050565b600060208201905081810360008301526122ff816122c3565b9050919050565b6000602082019050818103600083015261232081846120cd565b905092915050565b6000612333826116d6565b915061233e836116d6565b92508282101561235157612350611f33565b5b828203905092915050565b7f4e487b7100000000000000000000000000000000000000000000000000000000600052603160045260246000fd5b600060808201905081810360008301526123a581876120cd565b90506123b46020830186611d9b565b6123c16040830185611d9b565b6123ce6060830184611d8c565b9594505050505056fea264697066735822122014b90e6b43f68f828f080eda77de2d036e22861acb4fa0d22a51374c3739fac764736f6c63430008090033",
  "linkReferences": {},
  "deployedLinkReferences": {}
}