{"contracts/TodoList2.sol":{"TodoList2":{"abi":[{"anonymous":false,"inputs":[{"indexed":false,"internalType":"string","name":"username","type":"string"},{"indexed":false,"internalType":"uint256","name":"index","type":"uint256"},{"indexed":false,"internalType":"uint256","name":"amount","type":"uint256"},{"indexed":false,"internalType":"address","name":"sender","type":"address"},{"indexed":false,"internalType":"string","name":"description","type":"string"},{"indexed":false,"internalType":"string","name":"image","type":"string"}],"name":"TaskCreated","type":"event"},{"anonymous":false,"inputs":[{"indexed":false,"internalType":"string","name":"username","type":"string"},{"indexed":false,"internalType":"uint256","name":"index","type":"uint256"},{"indexed":false,"internalType":"uint256","name":"amount","type":"uint256"},{"indexed":false,"internalType":"address","name":"sender","type":"address"}],"name":"TaskDeleted","type":"event"},{"anonymous":false,"inputs":[{"indexed":false,"internalType":"string","name":"username","type":"string"},{"indexed":false,"internalType":"uint256","name":"index","type":"uint256"},{"indexed":false,"internalType":"string","name":"content","type":"string"},{"indexed":false,"internalType":"enum TodoList2.TaskStatus","name":"status","type":"uint8"},{"indexed":false,"internalType":"string","name":"description","type":"string"},{"indexed":false,"internalType":"string","name":"image","type":"string"}],"name":"TaskUpdated","type":"event"},{"anonymous":false,"inputs":[{"indexed":false,"internalType":"string","name":"username","type":"string"}],"name":"UserCreated","type":"event"},{"inputs":[{"internalType":"string","name":"_username","type":"string"},{"internalType":"string","name":"_content","type":"string"},{"internalType":"string","name":"_description","type":"string"},{"internalType":"string","name":"_image","type":"string"}],"name":"createTask","outputs":[],"stateMutability":"payable","type":"function"},{"inputs":[{"internalType":"string","name":"_username","type":"string"},{"internalType":"string","name":"_password","type":"string"}],"name":"createUser","outputs":[],"stateMutability":"nonpayable","type":"function"},{"inputs":[{"internalType":"string","name":"_username","type":"string"},{"internalType":"uint256","name":"_index","type":"uint256"}],"name":"deleteTask","outputs":[],"stateMutability":"nonpayable","type":"function"},{"inputs":[],"name":"getContractInfo","outputs":[{"internalType":"address","name":"","type":"address"},{"internalType":"uint256","name":"","type":"uint256"}],"stateMutability":"view","type":"function"},{"inputs":[{"internalType":"string","name":"_username","type":"string"},{"internalType":"uint256","name":"_index","type":"uint256"}],"name":"getTaskByIndex","outputs":[{"components":[{"internalType":"uint256","name":"index","type":"uint256"},{"internalType":"string","name":"content","type":"string"},{"internalType":"enum TodoList2.TaskStatus","name":"status","type":"uint8"},{"internalType":"uint256","name":"amount","type":"uint256"},{"internalType":"address","name":"sender","type":"address"},{"internalType":"string","name":"description","type":"string"},{"internalType":"string","name":"image","type":"string"}],"internalType":"struct TodoList2.Task","name":"","type":"tuple"}],"stateMutability":"view","type":"function"},{"inputs":[{"internalType":"string","name":"_username","type":"string"}],"name":"getUserTasks","outputs":[{"components":[{"internalType":"uint256","name":"index","type":"uint256"},{"internalType":"string","name":"content","type":"string"},{"internalType":"enum TodoList2.TaskStatus","name":"status","type":"uint8"},{"internalType":"uint256","name":"amount","type":"uint256"},{"internalType":"address","name":"sender","type":"address"},{"internalType":"string","name":"description","type":"string"},{"internalType":"string","name":"image","type":"string"}],"internalType":"struct TodoList2.TaskObject[]","name":"","type":"tuple[]"}],"stateMutability":"view","type":"function"},{"inputs":[{"internalType":"string","name":"_username","type":"string"},{"internalType":"string","name":"_password","type":"string"}],"name":"login","outputs":[{"internalType":"bool","name":"","type":"bool"}],"stateMutability":"view","type":"function"},{"inputs":[{"internalType":"string","name":"_username","type":"string"},{"internalType":"uint256","name":"_index","type":"uint256"},{"internalType":"string","name":"_content","type":"string"},{"internalType":"enum TodoList2.TaskStatus","name":"_status","type":"uint8"},{"internalType":"string","name":"_description","type":"string"},{"internalType":"string","name":"_image","type":"string"}],"name":"updateTask","outputs":[],"stateMutability":"nonpayable","type":"function"}],"evm":{"bytecode":{"linkReferences":{},"object":"608060405234801561001057600080fd5b5061240d806100206000396000f3fe60806040526004361061007b5760003560e01c806372a9f8191161004e57806372a9f819146101605780637cc1f8671461017c57806387b162b5146101a8578063c448feaf146101d15761007b565b80630ae799451461008057806338b818c8146100bd57806358467dbc146100fa5780636647372e14610137575b600080fd5b34801561008c57600080fd5b506100a760048036038101906100a29190611661565b6101fa565b6040516100b4919061196f565b60405180910390f35b3480156100c957600080fd5b506100e460048036038101906100df91906119bd565b610589565b6040516100f19190611ac3565b60405180910390f35b34801561010657600080fd5b50610121600480360381019061011c9190611ae5565b6108e8565b60405161012e9190611b78565b60405180910390f35b34801561014357600080fd5b5061015e60048036038101906101599190611bb8565b61098a565b005b61017a60048036038101906101759190611cb5565b610b32565b005b34801561018857600080fd5b50610191610db2565b60405161019f929190611daa565b60405180910390f35b3480156101b457600080fd5b506101cf60048036038101906101ca9190611ae5565b610dbf565b005b3480156101dd57600080fd5b506101f860048036038101906101f391906119bd565b610ebd565b005b60606000808360405161020d9190611e0f565b90815260200160405180910390209050600081600001805461022e90611e55565b90501415610271576040517f08c379a000000000000000000000000000000000000000000000000000000000815260040161026890611ee4565b60405180910390fd5b6000816002018054905067ffffffffffffffff81111561029457610293611536565b5b6040519080825280602002602001820160405280156102cd57816020015b6102ba6112cd565b8152602001906001900390816102b25790505b50905060005b826002018054905081101561057e5760008360020182815481106102fa576102f9611f04565b5b9060005260206000209060070201905060006040518060e001604052808360000154815260200183600101805461033090611e55565b80601f016020809104026020016040519081016040528092919081815260200182805461035c90611e55565b80156103a95780601f1061037e576101008083540402835291602001916103a9565b820191906000526020600020905b81548152906001019060200180831161038c57829003601f168201915b505050505081526020018360020160009054906101000a900460ff1660028111156103d7576103d6611777565b5b8152602001836003015481526020018360040160009054906101000a900473ffffffffffffffffffffffffffffffffffffffff1673ffffffffffffffffffffffffffffffffffffffff16815260200183600501805461043590611e55565b80601f016020809104026020016040519081016040528092919081815260200182805461046190611e55565b80156104ae5780601f10610483576101008083540402835291602001916104ae565b820191906000526020600020905b81548152906001019060200180831161049157829003601f168201915b505050505081526020018360060180546104c790611e55565b80601f01602080910402602001604051908101604052809291908181526020018280546104f390611e55565b80156105405780601f1061051557610100808354040283529160200191610540565b820191906000526020600020905b81548152906001019060200180831161052357829003601f168201915b505050505081525090508084848151811061055e5761055d611f04565b5b60200260200101819052505050808061057690611f62565b9150506102d3565b508092505050919050565b610591611332565b600080846040516105a29190611e0f565b9081526020016040518091039020905060008160000180546105c390611e55565b90501415610606576040517f08c379a00000000000000000000000000000000000000000000000000000000081526004016105fd90611ee4565b60405180910390fd5b8060020180549050831061064f576040517f08c379a000000000000000000000000000000000000000000000000000000000815260040161064690611ff7565b60405180910390fd5b600081600201848154811061066757610666611f04565b5b90600052602060002090600702019050806040518060e00160405290816000820154815260200160018201805461069d90611e55565b80601f01602080910402602001604051908101604052809291908181526020018280546106c990611e55565b80156107165780601f106106eb57610100808354040283529160200191610716565b820191906000526020600020905b8154815290600101906020018083116106f957829003601f168201915b505050505081526020016002820160009054906101000a900460ff16600281111561074457610743611777565b5b600281111561075657610755611777565b5b8152602001600382015481526020016004820160009054906101000a900473ffffffffffffffffffffffffffffffffffffffff1673ffffffffffffffffffffffffffffffffffffffff1673ffffffffffffffffffffffffffffffffffffffff1681526020016005820180546107ca90611e55565b80601f01602080910402602001604051908101604052809291908181526020018280546107f690611e55565b80156108435780601f1061081857610100808354040283529160200191610843565b820191906000526020600020905b81548152906001019060200180831161082657829003601f168201915b5050505050815260200160068201805461085c90611e55565b80601f016020809104026020016040519081016040528092919081815260200182805461088890611e55565b80156108d55780601f106108aa576101008083540402835291602001916108d5565b820191906000526020600020905b8154815290600101906020018083116108b857829003601f168201915b5050505050815250509250505092915050565b6000806000846040516108fb9190611e0f565b90815260200160405180910390209050600081600001805461091c90611e55565b9050141561095f576040517f08c379a000000000000000000000000000000000000000000000000000000000815260040161095690611ee4565b60405180910390fd5b82805190602001208160010160405161097891906120b6565b60405180910390201491505092915050565b6000808760405161099b9190611e0f565b9081526020016040518091039020905060008160000180546109bc90611e55565b905014156109ff576040517f08c379a00000000000000000000000000000000000000000000000000000000081526004016109f690611ee4565b60405180910390fd5b80600201805490508610610a48576040517f08c379a0000000000000000000000000000000000000000000000000000000008152600401610a3f90611ff7565b60405180910390fd5b6000816002018781548110610a6057610a5f611f04565b5b9060005260206000209060070201905085816001019080519060200190610a88929190611397565b50848160020160006101000a81548160ff02191690836002811115610ab057610aaf611777565b5b021790555083816005019080519060200190610acd929190611397565b5082816006019080519060200190610ae6929190611397565b507f6fe5d5a04f9b6a1b1756e436573d2086dba3e6f3e6c653abc61f1aceacde5822888888888888604051610b2096959493929190612115565b60405180910390a15050505050505050565b60008085604051610b439190611e0f565b908152602001604051809103902090506000816000018054610b6490611e55565b90501415610ba7576040517f08c379a0000000000000000000000000000000000000000000000000000000008152600401610b9e90611ee4565b60405180910390fd5b60003411610bea576040517f08c379a0000000000000000000000000000000000000000000000000000000008152600401610be190612204565b60405180910390fd5b60008160020180549050905060006040518060e0016040528083815260200187815260200160006002811115610c2357610c22611777565b5b81526020013481526020013373ffffffffffffffffffffffffffffffffffffffff16815260200186815260200185815250905082600201819080600181540180825580915050600190039060005260206000209060070201600090919091909150600082015181600001556020820151816001019080519060200190610caa929190611397565b5060408201518160020160006101000a81548160ff02191690836002811115610cd657610cd5611777565b5b02179055506060820151816003015560808201518160040160006101000a81548173ffffffffffffffffffffffffffffffffffffffff021916908373ffffffffffffffffffffffffffffffffffffffff16021790555060a0820151816005019080519060200190610d48929190611397565b5060c0820151816006019080519060200190610d65929190611397565b5050507fa8b3ffd119237bff0b026a5d8f6863b39856d0d4720398fa24736672db5acf82878334338989604051610da196959493929190612224565b60405180910390a150505050505050565b6000803047915091509091565b60008083604051610dd09190611e0f565b90815260200160405180910390206000018054610dec90611e55565b905014610e2e576040517f08c379a0000000000000000000000000000000000000000000000000000000008152600401610e25906122e6565b60405180910390fd5b60008083604051610e3f9190611e0f565b9081526020016040518091039020905082816000019080519060200190610e67929190611397565b5081816001019080519060200190610e80929190611397565b507f56b0a2dda7952cd07f438433182565929ba3aba4c3404a7d29a0840ac6284da483604051610eb09190612306565b60405180910390a1505050565b60008083604051610ece9190611e0f565b908152602001604051809103902090506000816000018054610eef90611e55565b90501415610f32576040517f08c379a0000000000000000000000000000000000000000000000000000000008152600401610f2990611ee4565b60405180910390fd5b80600201805490508210610f7b576040517f08c379a0000000000000000000000000000000000000000000000000000000008152600401610f7290611ff7565b60405180910390fd5b6000816002018381548110610f9357610f92611f04565b5b906000526020600020906007020190508060040160009054906101000a900473ffffffffffffffffffffffffffffffffffffffff1673ffffffffffffffffffffffffffffffffffffffff166108fc82600301549081150290604051600060405180830381858888f19350505050158015611011573d6000803e3d6000fd5b506000600183600201805490506110289190612328565b90508260020181815481106110405761103f611f04565b5b906000526020600020906007020183600201858154811061106457611063611f04565b5b906000526020600020906007020160008201548160000155600182018160010190805461109090611e55565b61109b92919061141d565b506002820160009054906101000a900460ff168160020160006101000a81548160ff021916908360028111156110d4576110d3611777565b5b0217905550600382015481600301556004820160009054906101000a900473ffffffffffffffffffffffffffffffffffffffff168160040160006101000a81548173ffffffffffffffffffffffffffffffffffffffff021916908373ffffffffffffffffffffffffffffffffffffffff160217905550600582018160050190805461115e90611e55565b61116992919061141d565b50600682018160060190805461117e90611e55565b61118992919061141d565b50905050838360020185815481106111a4576111a3611f04565b5b906000526020600020906007020160000181905550826002018054806111cd576111cc61235c565b5b60019003818190600052602060002090600702016000808201600090556001820160006111fa91906114aa565b6002820160006101000a81549060ff021916905560038201600090556004820160006101000a81549073ffffffffffffffffffffffffffffffffffffffff021916905560058201600061124d91906114aa565b60068201600061125d91906114aa565b505090557f7aca5f806dd46d14d6e6641bee21c9b0d94d697d48d4e45423861d4348fdb1de858584600301548560040160009054906101000a900473ffffffffffffffffffffffffffffffffffffffff166040516112be949392919061238b565b60405180910390a15050505050565b6040518060e001604052806000815260200160608152602001600060028111156112fa576112f9611777565b5b815260200160008152602001600073ffffffffffffffffffffffffffffffffffffffff16815260200160608152602001606081525090565b6040518060e0016040528060008152602001606081526020016000600281111561135f5761135e611777565b5b815260200160008152602001600073ffffffffffffffffffffffffffffffffffffffff16815260200160608152602001606081525090565b8280546113a390611e55565b90600052602060002090601f0160209004810192826113c5576000855561140c565b82601f106113de57805160ff191683800117855561140c565b8280016001018555821561140c579182015b8281111561140b5782518255916020019190600101906113f0565b5b50905061141991906114ea565b5090565b82805461142990611e55565b90600052602060002090601f01602090048101928261144b5760008555611499565b82601f1061145c5780548555611499565b8280016001018555821561149957600052602060002091601f016020900482015b8281111561149857825482559160010191906001019061147d565b5b5090506114a691906114ea565b5090565b5080546114b690611e55565b6000825580601f106114c857506114e7565b601f0160209004906000526020600020908101906114e691906114ea565b5b50565b5b808211156115035760008160009055506001016114eb565b5090565b6000604051905090565b600080fd5b600080fd5b600080fd5b600080fd5b6000601f19601f8301169050919050565b7f4e487b7100000000000000000000000000000000000000000000000000000000600052604160045260246000fd5b61156e82611525565b810181811067ffffffffffffffff8211171561158d5761158c611536565b5b80604052505050565b60006115a0611507565b90506115ac8282611565565b919050565b600067ffffffffffffffff8211156115cc576115cb611536565b5b6115d582611525565b9050602081019050919050565b82818337600083830152505050565b60006116046115ff846115b1565b611596565b9050828152602081018484840111156116205761161f611520565b5b61162b8482856115e2565b509392505050565b600082601f8301126116485761164761151b565b5b81356116588482602086016115f1565b91505092915050565b60006020828403121561167757611676611511565b5b600082013567ffffffffffffffff81111561169557611694611516565b5b6116a184828501611633565b91505092915050565b600081519050919050565b600082825260208201905092915050565b6000819050602082019050919050565b6000819050919050565b6116e9816116d6565b82525050565b600081519050919050565b600082825260208201905092915050565b60005b8381101561172957808201518184015260208101905061170e565b83811115611738576000848401525b50505050565b6000611749826116ef565b61175381856116fa565b935061176381856020860161170b565b61176c81611525565b840191505092915050565b7f4e487b7100000000000000000000000000000000000000000000000000000000600052602160045260246000fd5b600381106117b7576117b6611777565b5b50565b60008190506117c8826117a6565b919050565b60006117d8826117ba565b9050919050565b6117e8816117cd565b82525050565b600073ffffffffffffffffffffffffffffffffffffffff82169050919050565b6000611819826117ee565b9050919050565b6118298161180e565b82525050565b600060e08301600083015161184760008601826116e0565b506020830151848203602086015261185f828261173e565b915050604083015161187460408601826117df565b50606083015161188760608601826116e0565b50608083015161189a6080860182611820565b5060a083015184820360a08601526118b2828261173e565b91505060c083015184820360c08601526118cc828261173e565b9150508091505092915050565b60006118e5838361182f565b905092915050565b6000602082019050919050565b6000611905826116aa565b61190f81856116b5565b935083602082028501611921856116c6565b8060005b8581101561195d578484038952815161193e85826118d9565b9450611949836118ed565b925060208a01995050600181019050611925565b50829750879550505050505092915050565b6000602082019050818103600083015261198981846118fa565b905092915050565b61199a816116d6565b81146119a557600080fd5b50565b6000813590506119b781611991565b92915050565b600080604083850312156119d4576119d3611511565b5b600083013567ffffffffffffffff8111156119f2576119f1611516565b5b6119fe85828601611633565b9250506020611a0f858286016119a8565b9150509250929050565b600060e083016000830151611a3160008601826116e0565b5060208301518482036020860152611a49828261173e565b9150506040830151611a5e60408601826117df565b506060830151611a7160608601826116e0565b506080830151611a846080860182611820565b5060a083015184820360a0860152611a9c828261173e565b91505060c083015184820360c0860152611ab6828261173e565b9150508091505092915050565b60006020820190508181036000830152611add8184611a19565b905092915050565b60008060408385031215611afc57611afb611511565b5b600083013567ffffffffffffffff811115611b1a57611b19611516565b5b611b2685828601611633565b925050602083013567ffffffffffffffff811115611b4757611b46611516565b5b611b5385828601611633565b9150509250929050565b60008115159050919050565b611b7281611b5d565b82525050565b6000602082019050611b8d6000830184611b69565b92915050565b60038110611ba057600080fd5b50565b600081359050611bb281611b93565b92915050565b60008060008060008060c08789031215611bd557611bd4611511565b5b600087013567ffffffffffffffff811115611bf357611bf2611516565b5b611bff89828a01611633565b9650506020611c1089828a016119a8565b955050604087013567ffffffffffffffff811115611c3157611c30611516565b5b611c3d89828a01611633565b9450506060611c4e89828a01611ba3565b935050608087013567ffffffffffffffff811115611c6f57611c6e611516565b5b611c7b89828a01611633565b92505060a087013567ffffffffffffffff811115611c9c57611c9b611516565b5b611ca889828a01611633565b9150509295509295509295565b60008060008060808587031215611ccf57611cce611511565b5b600085013567ffffffffffffffff811115611ced57611cec611516565b5b611cf987828801611633565b945050602085013567ffffffffffffffff811115611d1a57611d19611516565b5b611d2687828801611633565b935050604085013567ffffffffffffffff811115611d4757611d46611516565b5b611d5387828801611633565b925050606085013567ffffffffffffffff811115611d7457611d73611516565b5b611d8087828801611633565b91505092959194509250565b611d958161180e565b82525050565b611da4816116d6565b82525050565b6000604082019050611dbf6000830185611d8c565b611dcc6020830184611d9b565b9392505050565b600081905092915050565b6000611de9826116ef565b611df38185611dd3565b9350611e0381856020860161170b565b80840191505092915050565b6000611e1b8284611dde565b915081905092915050565b7f4e487b7100000000000000000000000000000000000000000000000000000000600052602260045260246000fd5b60006002820490506001821680611e6d57607f821691505b60208210811415611e8157611e80611e26565b5b50919050565b600082825260208201905092915050565b7f55736572206e6f7420666f756e64000000000000000000000000000000000000600082015250565b6000611ece600e83611e87565b9150611ed982611e98565b602082019050919050565b60006020820190508181036000830152611efd81611ec1565b9050919050565b7f4e487b7100000000000000000000000000000000000000000000000000000000600052603260045260246000fd5b7f4e487b7100000000000000000000000000000000000000000000000000000000600052601160045260246000fd5b6000611f6d826116d6565b91507fffffffffffffffffffffffffffffffffffffffffffffffffffffffffffffffff821415611fa057611f9f611f33565b5b600182019050919050565b7f496e76616c6964207461736b20696e6465780000000000000000000000000000600082015250565b6000611fe1601283611e87565b9150611fec82611fab565b602082019050919050565b6000602082019050818103600083015261201081611fd4565b9050919050565b600081905092915050565b60008190508160005260206000209050919050565b6000815461204481611e55565b61204e8186612017565b94506001821660008114612069576001811461207a576120ad565b60ff198316865281860193506120ad565b61208385612022565b60005b838110156120a557815481890152600182019150602081019050612086565b838801955050505b50505092915050565b60006120c28284612037565b915081905092915050565b60006120d8826116ef565b6120e28185611e87565b93506120f281856020860161170b565b6120fb81611525565b840191505092915050565b61210f816117cd565b82525050565b600060c082019050818103600083015261212f81896120cd565b905061213e6020830188611d9b565b818103604083015261215081876120cd565b905061215f6060830186612106565b818103608083015261217181856120cd565b905081810360a083015261218581846120cd565b9050979650505050505050565b7f506c656173652073656e6420736f6d6520657468657220746f2063726561746560008201527f206120746f646f206c6973740000000000000000000000000000000000000000602082015250565b60006121ee602c83611e87565b91506121f982612192565b604082019050919050565b6000602082019050818103600083015261221d816121e1565b9050919050565b600060c082019050818103600083015261223e81896120cd565b905061224d6020830188611d9b565b61225a6040830187611d9b565b6122676060830186611d8c565b818103608083015261227981856120cd565b905081810360a083015261228d81846120cd565b9050979650505050505050565b7f557365726e616d6520616c726561647920657869737473000000000000000000600082015250565b60006122d0601783611e87565b91506122db8261229a565b602082019050919050565b600060208201905081810360008301526122ff816122c3565b9050919050565b6000602082019050818103600083015261232081846120cd565b905092915050565b6000612333826116d6565b915061233e836116d6565b92508282101561235157612350611f33565b5b828203905092915050565b7f4e487b7100000000000000000000000000000000000000000000000000000000600052603160045260246000fd5b600060808201905081810360008301526123a581876120cd565b90506123b46020830186611d9b565b6123c16040830185611d9b565b6123ce6060830184611d8c565b9594505050505056fea264697066735822122014b90e6b43f68f828f080eda77de2d036e22861acb4fa0d22a51374c3739fac764736f6c63430008090033","opcodes":"PUSH1 0x80 PUSH1 0x40 MSTORE CALLVALUE DUP1 ISZERO PUSH2 0x10 JUMPI PUSH1 0x0 DUP1 REVERT JUMPDEST POP PUSH2 0x240D DUP1 PUSH2 0x20 PUSH1 0x0 CODECOPY PUSH1 0x0 RETURN INVALID PUSH1 0x80 PUSH1 0x40 MSTORE PUSH1 0x4 CALLDATASIZE LT PUSH2 0x7B JUMPI PUSH1 0x0 CALLDATALOAD PUSH1 0xE0 SHR DUP1 PUSH4 0x72A9F819 GT PUSH2 0x4E JUMPI DUP1 PUSH4 0x72A9F819 EQ PUSH2 0x160 JUMPI DUP1 PUSH4 0x7CC1F867 EQ PUSH2 0x17C JUMPI DUP1 PUSH4 0x87B162B5 EQ PUSH2 0x1A8 JUMPI DUP1 PUSH4 0xC448FEAF EQ PUSH2 0x1D1 JUMPI PUSH2 0x7B JUMP JUMPDEST DUP1 PUSH4 0xAE79945 EQ PUSH2 0x80 JUMPI DUP1 PUSH4 0x38B818C8 EQ PUSH2 0xBD JUMPI DUP1 PUSH4 0x58467DBC EQ PUSH2 0xFA JUMPI DUP1 PUSH4 0x6647372E EQ PUSH2 0x137 JUMPI JUMPDEST PUSH1 0x0 DUP1 REVERT JUMPDEST CALLVALUE DUP1 ISZERO PUSH2 0x8C JUMPI PUSH1 0x0 DUP1 REVERT JUMPDEST POP PUSH2 0xA7 PUSH1 0x4 DUP1 CALLDATASIZE SUB DUP2 ADD SWAP1 PUSH2 0xA2 SWAP2 SWAP1 PUSH2 0x1661 JUMP JUMPDEST PUSH2 0x1FA JUMP JUMPDEST PUSH1 0x40 MLOAD PUSH2 0xB4 SWAP2 SWAP1 PUSH2 0x196F JUMP JUMPDEST PUSH1 0x40 MLOAD DUP1 SWAP2 SUB SWAP1 RETURN JUMPDEST CALLVALUE DUP1 ISZERO PUSH2 0xC9 JUMPI PUSH1 0x0 DUP1 REVERT JUMPDEST POP PUSH2 0xE4 PUSH1 0x4 DUP1 CALLDATASIZE SUB DUP2 ADD SWAP1 PUSH2 0xDF SWAP2 SWAP1 PUSH2 0x19BD JUMP JUMPDEST PUSH2 0x589 JUMP JUMPDEST PUSH1 0x40 MLOAD PUSH2 0xF1 SWAP2 SWAP1 PUSH2 0x1AC3 JUMP JUMPDEST PUSH1 0x40 MLOAD DUP1 SWAP2 SUB SWAP1 RETURN JUMPDEST CALLVALUE DUP1 ISZERO PUSH2 0x106 JUMPI PUSH1 0x0 DUP1 REVERT JUMPDEST POP PUSH2 0x121 PUSH1 0x4 DUP1 CALLDATASIZE SUB DUP2 ADD SWAP1 PUSH2 0x11C SWAP2 SWAP1 PUSH2 0x1AE5 JUMP JUMPDEST PUSH2 0x8E8 JUMP JUMPDEST PUSH1 0x40 MLOAD PUSH2 0x12E SWAP2 SWAP1 PUSH2 0x1B78 JUMP JUMPDEST PUSH1 0x40 MLOAD DUP1 SWAP2 SUB SWAP1 RETURN JUMPDEST CALLVALUE DUP1 ISZERO PUSH2 0x143 JUMPI PUSH1 0x0 DUP1 REVERT JUMPDEST POP PUSH2 0x15E PUSH1 0x4 DUP1 CALLDATASIZE SUB DUP2 ADD SWAP1 PUSH2 0x159 SWAP2 SWAP1 PUSH2 0x1BB8 JUMP JUMPDEST PUSH2 0x98A JUMP JUMPDEST STOP JUMPDEST PUSH2 0x17A PUSH1 0x4 DUP1 CALLDATASIZE SUB DUP2 ADD SWAP1 PUSH2 0x175 SWAP2 SWAP1 PUSH2 0x1CB5 JUMP JUMPDEST PUSH2 0xB32 JUMP JUMPDEST STOP JUMPDEST CALLVALUE DUP1 ISZERO PUSH2 0x188 JUMPI PUSH1 0x0 DUP1 REVERT JUMPDEST POP PUSH2 0x191 PUSH2 0xDB2 JUMP JUMPDEST PUSH1 0x40 MLOAD PUSH2 0x19F SWAP3 SWAP2 SWAP1 PUSH2 0x1DAA JUMP JUMPDEST PUSH1 0x40 MLOAD DUP1 SWAP2 SUB SWAP1 RETURN JUMPDEST CALLVALUE DUP1 ISZERO PUSH2 0x1B4 JUMPI PUSH1 0x0 DUP1 REVERT JUMPDEST POP PUSH2 0x1CF PUSH1 0x4 DUP1 CALLDATASIZE SUB DUP2 ADD SWAP1 PUSH2 0x1CA SWAP2 SWAP1 PUSH2 0x1AE5 JUMP JUMPDEST PUSH2 0xDBF JUMP JUMPDEST STOP JUMPDEST CALLVALUE DUP1 ISZERO PUSH2 0x1DD JUMPI PUSH1 0x0 DUP1 REVERT JUMPDEST POP PUSH2 0x1F8 PUSH1 0x4 DUP1 CALLDATASIZE SUB DUP2 ADD SWAP1 PUSH2 0x1F3 SWAP2 SWAP1 PUSH2 0x19BD JUMP JUMPDEST PUSH2 0xEBD JUMP JUMPDEST STOP JUMPDEST PUSH1 0x60 PUSH1 0x0 DUP1 DUP4 PUSH1 0x40 MLOAD PUSH2 0x20D SWAP2 SWAP1 PUSH2 0x1E0F JUMP JUMPDEST SWAP1 DUP2 MSTORE PUSH1 0x20 ADD PUSH1 0x40 MLOAD DUP1 SWAP2 SUB SWAP1 KECCAK256 SWAP1 POP PUSH1 0x0 DUP2 PUSH1 0x0 ADD DUP1 SLOAD PUSH2 0x22E SWAP1 PUSH2 0x1E55 JUMP JUMPDEST SWAP1 POP EQ ISZERO PUSH2 0x271 JUMPI PUSH1 0x40 MLOAD PUSH32 0x8C379A000000000000000000000000000000000000000000000000000000000 DUP2 MSTORE PUSH1 0x4 ADD PUSH2 0x268 SWAP1 PUSH2 0x1EE4 JUMP JUMPDEST PUSH1 0x40 MLOAD DUP1 SWAP2 SUB SWAP1 REVERT JUMPDEST PUSH1 0x0 DUP2 PUSH1 0x2 ADD DUP1 SLOAD SWAP1 POP PUSH8 0xFFFFFFFFFFFFFFFF DUP2 GT ISZERO PUSH2 0x294 JUMPI PUSH2 0x293 PUSH2 0x1536 JUMP JUMPDEST JUMPDEST PUSH1 0x40 MLOAD SWAP1 DUP1 DUP3 MSTORE DUP1 PUSH1 0x20 MUL PUSH1 0x20 ADD DUP3 ADD PUSH1 0x40 MSTORE DUP1 ISZERO PUSH2 0x2CD JUMPI DUP2 PUSH1 0x20 ADD JUMPDEST PUSH2 0x2BA PUSH2 0x12CD JUMP JUMPDEST DUP2 MSTORE PUSH1 0x20 ADD SWAP1 PUSH1 0x1 SWAP1 SUB SWAP1 DUP2 PUSH2 0x2B2 JUMPI SWAP1 POP JUMPDEST POP SWAP1 POP PUSH1 0x0 JUMPDEST DUP3 PUSH1 0x2 ADD DUP1 SLOAD SWAP1 POP DUP2 LT ISZERO PUSH2 0x57E JUMPI PUSH1 0x0 DUP4 PUSH1 0x2 ADD DUP3 DUP2 SLOAD DUP2 LT PUSH2 0x2FA JUMPI PUSH2 0x2F9 PUSH2 0x1F04 JUMP JUMPDEST JUMPDEST SWAP1 PUSH1 0x0 MSTORE PUSH1 0x20 PUSH1 0x0 KECCAK256 SWAP1 PUSH1 0x7 MUL ADD SWAP1 POP PUSH1 0x0 PUSH1 0x40 MLOAD DUP1 PUSH1 0xE0 ADD PUSH1 0x40 MSTORE DUP1 DUP4 PUSH1 0x0 ADD SLOAD DUP2 MSTORE PUSH1 0x20 ADD DUP4 PUSH1 0x1 ADD DUP1 SLOAD PUSH2 0x330 SWAP1 PUSH2 0x1E55 JUMP JUMPDEST DUP1 PUSH1 0x1F ADD PUSH1 0x20 DUP1 SWAP2 DIV MUL PUSH1 0x20 ADD PUSH1 0x40 MLOAD SWAP1 DUP2 ADD PUSH1 0x40 MSTORE DUP1 SWAP3 SWAP2 SWAP1 DUP2 DUP2 MSTORE PUSH1 0x20 ADD DUP3 DUP1 SLOAD PUSH2 0x35C SWAP1 PUSH2 0x1E55 JUMP JUMPDEST DUP1 ISZERO PUSH2 0x3A9 JUMPI DUP1 PUSH1 0x1F LT PUSH2 0x37E JUMPI PUSH2 0x100 DUP1 DUP4 SLOAD DIV MUL DUP4 MSTORE SWAP2 PUSH1 0x20 ADD SWAP2 PUSH2 0x3A9 JUMP JUMPDEST DUP3 ADD SWAP2 SWAP1 PUSH1 0x0 MSTORE PUSH1 0x20 PUSH1 0x0 KECCAK256 SWAP1 JUMPDEST DUP2 SLOAD DUP2 MSTORE SWAP1 PUSH1 0x1 ADD SWAP1 PUSH1 0x20 ADD DUP1 DUP4 GT PUSH2 0x38C JUMPI DUP3 SWAP1 SUB PUSH1 0x1F AND DUP3 ADD SWAP2 JUMPDEST POP POP POP POP POP DUP2 MSTORE PUSH1 0x20 ADD DUP4 PUSH1 0x2 ADD PUSH1 0x0 SWAP1 SLOAD SWAP1 PUSH2 0x100 EXP SWAP1 DIV PUSH1 0xFF AND PUSH1 0x2 DUP2 GT ISZERO PUSH2 0x3D7 JUMPI PUSH2 0x3D6 PUSH2 0x1777 JUMP JUMPDEST JUMPDEST DUP2 MSTORE PUSH1 0x20 ADD DUP4 PUSH1 0x3 ADD SLOAD DUP2 MSTORE PUSH1 0x20 ADD DUP4 PUSH1 0x4 ADD PUSH1 0x0 SWAP1 SLOAD SWAP1 PUSH2 0x100 EXP SWAP1 DIV PUSH20 0xFFFFFFFFFFFFFFFFFFFFFFFFFFFFFFFFFFFFFFFF AND PUSH20 0xFFFFFFFFFFFFFFFFFFFFFFFFFFFFFFFFFFFFFFFF AND DUP2 MSTORE PUSH1 0x20 ADD DUP4 PUSH1 0x5 ADD DUP1 SLOAD PUSH2 0x435 SWAP1 PUSH2 0x1E55 JUMP JUMPDEST DUP1 PUSH1 0x1F ADD PUSH1 0x20 DUP1 SWAP2 DIV MUL PUSH1 0x20 ADD PUSH1 0x40 MLOAD SWAP1 DUP2 ADD PUSH1 0x40 MSTORE DUP1 SWAP3 SWAP2 SWAP1 DUP2 DUP2 MSTORE PUSH1 0x20 ADD DUP3 DUP1 SLOAD PUSH2 0x461 SWAP1 PUSH2 0x1E55 JUMP JUMPDEST DUP1 ISZERO PUSH2 0x4AE JUMPI DUP1 PUSH1 0x1F LT PUSH2 0x483 JUMPI PUSH2 0x100 DUP1 DUP4 SLOAD DIV MUL DUP4 MSTORE SWAP2 PUSH1 0x20 ADD SWAP2 PUSH2 0x4AE JUMP JUMPDEST DUP3 ADD SWAP2 SWAP1 PUSH1 0x0 MSTORE PUSH1 0x20 PUSH1 0x0 KECCAK256 SWAP1 JUMPDEST DUP2 SLOAD DUP2 MSTORE SWAP1 PUSH1 0x1 ADD SWAP1 PUSH1 0x20 ADD DUP1 DUP4 GT PUSH2 0x491 JUMPI DUP3 SWAP1 SUB PUSH1 0x1F AND DUP3 ADD SWAP2 JUMPDEST POP POP POP POP POP DUP2 MSTORE PUSH1 0x20 ADD DUP4 PUSH1 0x6 ADD DUP1 SLOAD PUSH2 0x4C7 SWAP1 PUSH2 0x1E55 JUMP JUMPDEST DUP1 PUSH1 0x1F ADD PUSH1 0x20 DUP1 SWAP2 DIV MUL PUSH1 0x20 ADD PUSH1 0x40 MLOAD SWAP1 DUP2 ADD PUSH1 0x40 MSTORE DUP1 SWAP3 SWAP2 SWAP1 DUP2 DUP2 MSTORE PUSH1 0x20 ADD DUP3 DUP1 SLOAD PUSH2 0x4F3 SWAP1 PUSH2 0x1E55 JUMP JUMPDEST DUP1 ISZERO PUSH2 0x540 JUMPI DUP1 PUSH1 0x1F LT PUSH2 0x515 JUMPI PUSH2 0x100 DUP1 DUP4 SLOAD DIV MUL DUP4 MSTORE SWAP2 PUSH1 0x20 ADD SWAP2 PUSH2 0x540 JUMP JUMPDEST DUP3 ADD SWAP2 SWAP1 PUSH1 0x0 MSTORE PUSH1 0x20 PUSH1 0x0 KECCAK256 SWAP1 JUMPDEST DUP2 SLOAD DUP2 MSTORE SWAP1 PUSH1 0x1 ADD SWAP1 PUSH1 0x20 ADD DUP1 DUP4 GT PUSH2 0x523 JUMPI DUP3 SWAP1 SUB PUSH1 0x1F AND DUP3 ADD SWAP2 JUMPDEST POP POP POP POP POP DUP2 MSTORE POP SWAP1 POP DUP1 DUP5 DUP5 DUP2 MLOAD DUP2 LT PUSH2 0x55E JUMPI PUSH2 0x55D PUSH2 0x1F04 JUMP JUMPDEST JUMPDEST PUSH1 0x20 MUL PUSH1 0x20 ADD ADD DUP2 SWAP1 MSTORE POP POP POP DUP1 DUP1 PUSH2 0x576 SWAP1 PUSH2 0x1F62 JUMP JUMPDEST SWAP2 POP POP PUSH2 0x2D3 JUMP JUMPDEST POP DUP1 SWAP3 POP POP POP SWAP2 SWAP1 POP JUMP JUMPDEST PUSH2 0x591 PUSH2 0x1332 JUMP JUMPDEST PUSH1 0x0 DUP1 DUP5 PUSH1 0x40 MLOAD PUSH2 0x5A2 SWAP2 SWAP1 PUSH2 0x1E0F JUMP JUMPDEST SWAP1 DUP2 MSTORE PUSH1 0x20 ADD PUSH1 0x40 MLOAD DUP1 SWAP2 SUB SWAP1 KECCAK256 SWAP1 POP PUSH1 0x0 DUP2 PUSH1 0x0 ADD DUP1 SLOAD PUSH2 0x5C3 SWAP1 PUSH2 0x1E55 JUMP JUMPDEST SWAP1 POP EQ ISZERO PUSH2 0x606 JUMPI PUSH1 0x40 MLOAD PUSH32 0x8C379A000000000000000000000000000000000000000000000000000000000 DUP2 MSTORE PUSH1 0x4 ADD PUSH2 0x5FD SWAP1 PUSH2 0x1EE4 JUMP JUMPDEST PUSH1 0x40 MLOAD DUP1 SWAP2 SUB SWAP1 REVERT JUMPDEST DUP1 PUSH1 0x2 ADD DUP1 SLOAD SWAP1 POP DUP4 LT PUSH2 0x64F JUMPI PUSH1 0x40 MLOAD PUSH32 0x8C379A000000000000000000000000000000000000000000000000000000000 DUP2 MSTORE PUSH1 0x4 ADD PUSH2 0x646 SWAP1 PUSH2 0x1FF7 JUMP JUMPDEST PUSH1 0x40 MLOAD DUP1 SWAP2 SUB SWAP1 REVERT JUMPDEST PUSH1 0x0 DUP2 PUSH1 0x2 ADD DUP5 DUP2 SLOAD DUP2 LT PUSH2 0x667 JUMPI PUSH2 0x666 PUSH2 0x1F04 JUMP JUMPDEST JUMPDEST SWAP1 PUSH1 0x0 MSTORE PUSH1 0x20 PUSH1 0x0 KECCAK256 SWAP1 PUSH1 0x7 MUL ADD SWAP1 POP DUP1 PUSH1 0x40 MLOAD DUP1 PUSH1 0xE0 ADD PUSH1 0x40 MSTORE SWAP1 DUP2 PUSH1 0x0 DUP3 ADD SLOAD DUP2 MSTORE PUSH1 0x20 ADD PUSH1 0x1 DUP3 ADD DUP1 SLOAD PUSH2 0x69D SWAP1 PUSH2 0x1E55 JUMP JUMPDEST DUP1 PUSH1 0x1F ADD PUSH1 0x20 DUP1 SWAP2 DIV MUL PUSH1 0x20 ADD PUSH1 0x40 MLOAD SWAP1 DUP2 ADD PUSH1 0x40 MSTORE DUP1 SWAP3 SWAP2 SWAP1 DUP2 DUP2 MSTORE PUSH1 0x20 ADD DUP3 DUP1 SLOAD PUSH2 0x6C9 SWAP1 PUSH2 0x1E55 JUMP JUMPDEST DUP1 ISZERO PUSH2 0x716 JUMPI DUP1 PUSH1 0x1F LT PUSH2 0x6EB JUMPI PUSH2 0x100 DUP1 DUP4 SLOAD DIV MUL DUP4 MSTORE SWAP2 PUSH1 0x20 ADD SWAP2 PUSH2 0x716 JUMP JUMPDEST DUP3 ADD SWAP2 SWAP1 PUSH1 0x0 MSTORE PUSH1 0x20 PUSH1 0x0 KECCAK256 SWAP1 JUMPDEST DUP2 SLOAD DUP2 MSTORE SWAP1 PUSH1 0x1 ADD SWAP1 PUSH1 0x20 ADD DUP1 DUP4 GT PUSH2 0x6F9 JUMPI DUP3 SWAP1 SUB PUSH1 0x1F AND DUP3 ADD SWAP2 JUMPDEST POP POP POP POP POP DUP2 MSTORE PUSH1 0x20 ADD PUSH1 0x2 DUP3 ADD PUSH1 0x0 SWAP1 SLOAD SWAP1 PUSH2 0x100 EXP SWAP1 DIV PUSH1 0xFF AND PUSH1 0x2 DUP2 GT ISZERO PUSH2 0x744 JUMPI PUSH2 0x743 PUSH2 0x1777 JUMP JUMPDEST JUMPDEST PUSH1 0x2 DUP2 GT ISZERO PUSH2 0x756 JUMPI PUSH2 0x755 PUSH2 0x1777 JUMP JUMPDEST JUMPDEST DUP2 MSTORE PUSH1 0x20 ADD PUSH1 0x3 DUP3 ADD SLOAD DUP2 MSTORE PUSH1 0x20 ADD PUSH1 0x4 DUP3 ADD PUSH1 0x0 SWAP1 SLOAD SWAP1 PUSH2 0x100 EXP SWAP1 DIV PUSH20 0xFFFFFFFFFFFFFFFFFFFFFFFFFFFFFFFFFFFFFFFF AND PUSH20 0xFFFFFFFFFFFFFFFFFFFFFFFFFFFFFFFFFFFFFFFF AND PUSH20 0xFFFFFFFFFFFFFFFFFFFFFFFFFFFFFFFFFFFFFFFF AND DUP2 MSTORE PUSH1 0x20 ADD PUSH1 0x5 DUP3 ADD DUP1 SLOAD PUSH2 0x7CA SWAP1 PUSH2 0x1E55 JUMP JUMPDEST DUP1 PUSH1 0x1F ADD PUSH1 0x20 DUP1 SWAP2 DIV MUL PUSH1 0x20 ADD PUSH1 0x40 MLOAD SWAP1 DUP2 ADD PUSH1 0x40 MSTORE DUP1 SWAP3 SWAP2 SWAP1 DUP2 DUP2 MSTORE PUSH1 0x20 ADD DUP3 DUP1 SLOAD PUSH2 0x7F6 SWAP1 PUSH2 0x1E55 JUMP JUMPDEST DUP1 ISZERO PUSH2 0x843 JUMPI DUP1 PUSH1 0x1F LT PUSH2 0x818 JUMPI PUSH2 0x100 DUP1 DUP4 SLOAD DIV MUL DUP4 MSTORE SWAP2 PUSH1 0x20 ADD SWAP2 PUSH2 0x843 JUMP JUMPDEST DUP3 ADD SWAP2 SWAP1 PUSH1 0x0 MSTORE PUSH1 0x20 PUSH1 0x0 KECCAK256 SWAP1 JUMPDEST DUP2 SLOAD DUP2 MSTORE SWAP1 PUSH1 0x1 ADD SWAP1 PUSH1 0x20 ADD DUP1 DUP4 GT PUSH2 0x826 JUMPI DUP3 SWAP1 SUB PUSH1 0x1F AND DUP3 ADD SWAP2 JUMPDEST POP POP POP POP POP DUP2 MSTORE PUSH1 0x20 ADD PUSH1 0x6 DUP3 ADD DUP1 SLOAD PUSH2 0x85C SWAP1 PUSH2 0x1E55 JUMP JUMPDEST DUP1 PUSH1 0x1F ADD PUSH1 0x20 DUP1 SWAP2 DIV MUL PUSH1 0x20 ADD PUSH1 0x40 MLOAD SWAP1 DUP2 ADD PUSH1 0x40 MSTORE DUP1 SWAP3 SWAP2 SWAP1 DUP2 DUP2 MSTORE PUSH1 0x20 ADD DUP3 DUP1 SLOAD PUSH2 0x888 SWAP1 PUSH2 0x1E55 JUMP JUMPDEST DUP1 ISZERO PUSH2 0x8D5 JUMPI DUP1 PUSH1 0x1F LT PUSH2 0x8AA JUMPI PUSH2 0x100 DUP1 DUP4 SLOAD DIV MUL DUP4 MSTORE SWAP2 PUSH1 0x20 ADD SWAP2 PUSH2 0x8D5 JUMP JUMPDEST DUP3 ADD SWAP2 SWAP1 PUSH1 0x0 MSTORE PUSH1 0x20 PUSH1 0x0 KECCAK256 SWAP1 JUMPDEST DUP2 SLOAD DUP2 MSTORE SWAP1 PUSH1 0x1 ADD SWAP1 PUSH1 0x20 ADD DUP1 DUP4 GT PUSH2 0x8B8 JUMPI DUP3 SWAP1 SUB PUSH1 0x1F AND DUP3 ADD SWAP2 JUMPDEST POP POP POP POP POP DUP2 MSTORE POP POP SWAP3 POP POP POP SWAP3 SWAP2 POP POP JUMP JUMPDEST PUSH1 0x0 DUP1 PUSH1 0x0 DUP5 PUSH1 0x40 MLOAD PUSH2 0x8FB SWAP2 SWAP1 PUSH2 0x1E0F JUMP JUMPDEST SWAP1 DUP2 MSTORE PUSH1 0x20 ADD PUSH1 0x40 MLOAD DUP1 SWAP2 SUB SWAP1 KECCAK256 SWAP1 POP PUSH1 0x0 DUP2 PUSH1 0x0 ADD DUP1 SLOAD PUSH2 0x91C SWAP1 PUSH2 0x1E55 JUMP JUMPDEST SWAP1 POP EQ ISZERO PUSH2 0x95F JUMPI PUSH1 0x40 MLOAD PUSH32 0x8C379A000000000000000000000000000000000000000000000000000000000 DUP2 MSTORE PUSH1 0x4 ADD PUSH2 0x956 SWAP1 PUSH2 0x1EE4 JUMP JUMPDEST PUSH1 0x40 MLOAD DUP1 SWAP2 SUB SWAP1 REVERT JUMPDEST DUP3 DUP1 MLOAD SWAP1 PUSH1 0x20 ADD KECCAK256 DUP2 PUSH1 0x1 ADD PUSH1 0x40 MLOAD PUSH2 0x978 SWAP2 SWAP1 PUSH2 0x20B6 JUMP JUMPDEST PUSH1 0x40 MLOAD DUP1 SWAP2 SUB SWAP1 KECCAK256 EQ SWAP2 POP POP SWAP3 SWAP2 POP POP JUMP JUMPDEST PUSH1 0x0 DUP1 DUP8 PUSH1 0x40 MLOAD PUSH2 0x99B SWAP2 SWAP1 PUSH2 0x1E0F JUMP JUMPDEST SWAP1 DUP2 MSTORE PUSH1 0x20 ADD PUSH1 0x40 MLOAD DUP1 SWAP2 SUB SWAP1 KECCAK256 SWAP1 POP PUSH1 0x0 DUP2 PUSH1 0x0 ADD DUP1 SLOAD PUSH2 0x9BC SWAP1 PUSH2 0x1E55 JUMP JUMPDEST SWAP1 POP EQ ISZERO PUSH2 0x9FF JUMPI PUSH1 0x40 MLOAD PUSH32 0x8C379A000000000000000000000000000000000000000000000000000000000 DUP2 MSTORE PUSH1 0x4 ADD PUSH2 0x9F6 SWAP1 PUSH2 0x1EE4 JUMP JUMPDEST PUSH1 0x40 MLOAD DUP1 SWAP2 SUB SWAP1 REVERT JUMPDEST DUP1 PUSH1 0x2 ADD DUP1 SLOAD SWAP1 POP DUP7 LT PUSH2 0xA48 JUMPI PUSH1 0x40 MLOAD PUSH32 0x8C379A000000000000000000000000000000000000000000000000000000000 DUP2 MSTORE PUSH1 0x4 ADD PUSH2 0xA3F SWAP1 PUSH2 0x1FF7 JUMP JUMPDEST PUSH1 0x40 MLOAD DUP1 SWAP2 SUB SWAP1 REVERT JUMPDEST PUSH1 0x0 DUP2 PUSH1 0x2 ADD DUP8 DUP2 SLOAD DUP2 LT PUSH2 0xA60 JUMPI PUSH2 0xA5F PUSH2 0x1F04 JUMP JUMPDEST JUMPDEST SWAP1 PUSH1 0x0 MSTORE PUSH1 0x20 PUSH1 0x0 KECCAK256 SWAP1 PUSH1 0x7 MUL ADD SWAP1 POP DUP6 DUP2 PUSH1 0x1 ADD SWAP1 DUP1 MLOAD SWAP1 PUSH1 0x20 ADD SWAP1 PUSH2 0xA88 SWAP3 SWAP2 SWAP1 PUSH2 0x1397 JUMP JUMPDEST POP DUP5 DUP2 PUSH1 0x2 ADD PUSH1 0x0 PUSH2 0x100 EXP DUP2 SLOAD DUP2 PUSH1 0xFF MUL NOT AND SWAP1 DUP4 PUSH1 0x2 DUP2 GT ISZERO PUSH2 0xAB0 JUMPI PUSH2 0xAAF PUSH2 0x1777 JUMP JUMPDEST JUMPDEST MUL OR SWAP1 SSTORE POP DUP4 DUP2 PUSH1 0x5 ADD SWAP1 DUP1 MLOAD SWAP1 PUSH1 0x20 ADD SWAP1 PUSH2 0xACD SWAP3 SWAP2 SWAP1 PUSH2 0x1397 JUMP JUMPDEST POP DUP3 DUP2 PUSH1 0x6 ADD SWAP1 DUP1 MLOAD SWAP1 PUSH1 0x20 ADD SWAP1 PUSH2 0xAE6 SWAP3 SWAP2 SWAP1 PUSH2 0x1397 JUMP JUMPDEST POP PUSH32 0x6FE5D5A04F9B6A1B1756E436573D2086DBA3E6F3E6C653ABC61F1ACEACDE5822 DUP9 DUP9 DUP9 DUP9 DUP9 DUP9 PUSH1 0x40 MLOAD PUSH2 0xB20 SWAP7 SWAP6 SWAP5 SWAP4 SWAP3 SWAP2 SWAP1 PUSH2 0x2115 JUMP JUMPDEST PUSH1 0x40 MLOAD DUP1 SWAP2 SUB SWAP1 LOG1 POP POP POP POP POP POP POP POP JUMP JUMPDEST PUSH1 0x0 DUP1 DUP6 PUSH1 0x40 MLOAD PUSH2 0xB43 SWAP2 SWAP1 PUSH2 0x1E0F JUMP JUMPDEST SWAP1 DUP2 MSTORE PUSH1 0x20 ADD PUSH1 0x40 MLOAD DUP1 SWAP2 SUB SWAP1 KECCAK256 SWAP1 POP PUSH1 0x0 DUP2 PUSH1 0x0 ADD DUP1 SLOAD PUSH2 0xB64 SWAP1 PUSH2 0x1E55 JUMP JUMPDEST SWAP1 POP EQ ISZERO PUSH2 0xBA7 JUMPI PUSH1 0x40 MLOAD PUSH32 0x8C379A000000000000000000000000000000000000000000000000000000000 DUP2 MSTORE PUSH1 0x4 ADD PUSH2 0xB9E SWAP1 PUSH2 0x1EE4 JUMP JUMPDEST PUSH1 0x40 MLOAD DUP1 SWAP2 SUB SWAP1 REVERT JUMPDEST PUSH1 0x0 CALLVALUE GT PUSH2 0xBEA JUMPI PUSH1 0x40 MLOAD PUSH32 0x8C379A000000000000000000000000000000000000000000000000000000000 DUP2 MSTORE PUSH1 0x4 ADD PUSH2 0xBE1 SWAP1 PUSH2 0x2204 JUMP JUMPDEST PUSH1 0x40 MLOAD DUP1 SWAP2 SUB SWAP1 REVERT JUMPDEST PUSH1 0x0 DUP2 PUSH1 0x2 ADD DUP1 SLOAD SWAP1 POP SWAP1 POP PUSH1 0x0 PUSH1 0x40 MLOAD DUP1 PUSH1 0xE0 ADD PUSH1 0x40 MSTORE DUP1 DUP4 DUP2 MSTORE PUSH1 0x20 ADD DUP8 DUP2 MSTORE PUSH1 0x20 ADD PUSH1 0x0 PUSH1 0x2 DUP2 GT ISZERO PUSH2 0xC23 JUMPI PUSH2 0xC22 PUSH2 0x1777 JUMP JUMPDEST JUMPDEST DUP2 MSTORE PUSH1 0x20 ADD CALLVALUE DUP2 MSTORE PUSH1 0x20 ADD CALLER PUSH20 0xFFFFFFFFFFFFFFFFFFFFFFFFFFFFFFFFFFFFFFFF AND DUP2 MSTORE PUSH1 0x20 ADD DUP7 DUP2 MSTORE PUSH1 0x20 ADD DUP6 DUP2 MSTORE POP SWAP1 POP DUP3 PUSH1 0x2 ADD DUP2 SWAP1 DUP1 PUSH1 0x1 DUP2 SLOAD ADD DUP1 DUP3 SSTORE DUP1 SWAP2 POP POP PUSH1 0x1 SWAP1 SUB SWAP1 PUSH1 0x0 MSTORE PUSH1 0x20 PUSH1 0x0 KECCAK256 SWAP1 PUSH1 0x7 MUL ADD PUSH1 0x0 SWAP1 SWAP2 SWAP1 SWAP2 SWAP1 SWAP2 POP PUSH1 0x0 DUP3 ADD MLOAD DUP2 PUSH1 0x0 ADD SSTORE PUSH1 0x20 DUP3 ADD MLOAD DUP2 PUSH1 0x1 ADD SWAP1 DUP1 MLOAD SWAP1 PUSH1 0x20 ADD SWAP1 PUSH2 0xCAA SWAP3 SWAP2 SWAP1 PUSH2 0x1397 JUMP JUMPDEST POP PUSH1 0x40 DUP3 ADD MLOAD DUP2 PUSH1 0x2 ADD PUSH1 0x0 PUSH2 0x100 EXP DUP2 SLOAD DUP2 PUSH1 0xFF MUL NOT AND SWAP1 DUP4 PUSH1 0x2 DUP2 GT ISZERO PUSH2 0xCD6 JUMPI PUSH2 0xCD5 PUSH2 0x1777 JUMP JUMPDEST JUMPDEST MUL OR SWAP1 SSTORE POP PUSH1 0x60 DUP3 ADD MLOAD DUP2 PUSH1 0x3 ADD SSTORE PUSH1 0x80 DUP3 ADD MLOAD DUP2 PUSH1 0x4 ADD PUSH1 0x0 PUSH2 0x100 EXP DUP2 SLOAD DUP2 PUSH20 0xFFFFFFFFFFFFFFFFFFFFFFFFFFFFFFFFFFFFFFFF MUL NOT AND SWAP1 DUP4 PUSH20 0xFFFFFFFFFFFFFFFFFFFFFFFFFFFFFFFFFFFFFFFF AND MUL OR SWAP1 SSTORE POP PUSH1 0xA0 DUP3 ADD MLOAD DUP2 PUSH1 0x5 ADD SWAP1 DUP1 MLOAD SWAP1 PUSH1 0x20 ADD SWAP1 PUSH2 0xD48 SWAP3 SWAP2 SWAP1 PUSH2 0x1397 JUMP JUMPDEST POP PUSH1 0xC0 DUP3 ADD MLOAD DUP2 PUSH1 0x6 ADD SWAP1 DUP1 MLOAD SWAP1 PUSH1 0x20 ADD SWAP1 PUSH2 0xD65 SWAP3 SWAP2 SWAP1 PUSH2 0x1397 JUMP JUMPDEST POP POP POP PUSH32 0xA8B3FFD119237BFF0B026A5D8F6863B39856D0D4720398FA24736672DB5ACF82 DUP8 DUP4 CALLVALUE CALLER DUP10 DUP10 PUSH1 0x40 MLOAD PUSH2 0xDA1 SWAP7 SWAP6 SWAP5 SWAP4 SWAP3 SWAP2 SWAP1 PUSH2 0x2224 JUMP JUMPDEST PUSH1 0x40 MLOAD DUP1 SWAP2 SUB SWAP1 LOG1 POP POP POP POP POP POP POP JUMP JUMPDEST PUSH1 0x0 DUP1 ADDRESS SELFBALANCE SWAP2 POP SWAP2 POP SWAP1 SWAP2 JUMP JUMPDEST PUSH1 0x0 DUP1 DUP4 PUSH1 0x40 MLOAD PUSH2 0xDD0 SWAP2 SWAP1 PUSH2 0x1E0F JUMP JUMPDEST SWAP1 DUP2 MSTORE PUSH1 0x20 ADD PUSH1 0x40 MLOAD DUP1 SWAP2 SUB SWAP1 KECCAK256 PUSH1 0x0 ADD DUP1 SLOAD PUSH2 0xDEC SWAP1 PUSH2 0x1E55 JUMP JUMPDEST SWAP1 POP EQ PUSH2 0xE2E JUMPI PUSH1 0x40 MLOAD PUSH32 0x8C379A000000000000000000000000000000000000000000000000000000000 DUP2 MSTORE PUSH1 0x4 ADD PUSH2 0xE25 SWAP1 PUSH2 0x22E6 JUMP JUMPDEST PUSH1 0x40 MLOAD DUP1 SWAP2 SUB SWAP1 REVERT JUMPDEST PUSH1 0x0 DUP1 DUP4 PUSH1 0x40 MLOAD PUSH2 0xE3F SWAP2 SWAP1 PUSH2 0x1E0F JUMP JUMPDEST SWAP1 DUP2 MSTORE PUSH1 0x20 ADD PUSH1 0x40 MLOAD DUP1 SWAP2 SUB SWAP1 KECCAK256 SWAP1 POP DUP3 DUP2 PUSH1 0x0 ADD SWAP1 DUP1 MLOAD SWAP1 PUSH1 0x20 ADD SWAP1 PUSH2 0xE67 SWAP3 SWAP2 SWAP1 PUSH2 0x1397 JUMP JUMPDEST POP DUP2 DUP2 PUSH1 0x1 ADD SWAP1 DUP1 MLOAD SWAP1 PUSH1 0x20 ADD SWAP1 PUSH2 0xE80 SWAP3 SWAP2 SWAP1 PUSH2 0x1397 JUMP JUMPDEST POP PUSH32 0x56B0A2DDA7952CD07F438433182565929BA3ABA4C3404A7D29A0840AC6284DA4 DUP4 PUSH1 0x40 MLOAD PUSH2 0xEB0 SWAP2 SWAP1 PUSH2 0x2306 JUMP JUMPDEST PUSH1 0x40 MLOAD DUP1 SWAP2 SUB SWAP1 LOG1 POP POP POP JUMP JUMPDEST PUSH1 0x0 DUP1 DUP4 PUSH1 0x40 MLOAD PUSH2 0xECE SWAP2 SWAP1 PUSH2 0x1E0F JUMP JUMPDEST SWAP1 DUP2 MSTORE PUSH1 0x20 ADD PUSH1 0x40 MLOAD DUP1 SWAP2 SUB SWAP1 KECCAK256 SWAP1 POP PUSH1 0x0 DUP2 PUSH1 0x0 ADD DUP1 SLOAD PUSH2 0xEEF SWAP1 PUSH2 0x1E55 JUMP JUMPDEST SWAP1 POP EQ ISZERO PUSH2 0xF32 JUMPI PUSH1 0x40 MLOAD PUSH32 0x8C379A000000000000000000000000000000000000000000000000000000000 DUP2 MSTORE PUSH1 0x4 ADD PUSH2 0xF29 SWAP1 PUSH2 0x1EE4 JUMP JUMPDEST PUSH1 0x40 MLOAD DUP1 SWAP2 SUB SWAP1 REVERT JUMPDEST DUP1 PUSH1 0x2 ADD DUP1 SLOAD SWAP1 POP DUP3 LT PUSH2 0xF7B JUMPI PUSH1 0x40 MLOAD PUSH32 0x8C379A000000000000000000000000000000000000000000000000000000000 DUP2 MSTORE PUSH1 0x4 ADD PUSH2 0xF72 SWAP1 PUSH2 0x1FF7 JUMP JUMPDEST PUSH1 0x40 MLOAD DUP1 SWAP2 SUB SWAP1 REVERT JUMPDEST PUSH1 0x0 DUP2 PUSH1 0x2 ADD DUP4 DUP2 SLOAD DUP2 LT PUSH2 0xF93 JUMPI PUSH2 0xF92 PUSH2 0x1F04 JUMP JUMPDEST JUMPDEST SWAP1 PUSH1 0x0 MSTORE PUSH1 0x20 PUSH1 0x0 KECCAK256 SWAP1 PUSH1 0x7 MUL ADD SWAP1 POP DUP1 PUSH1 0x4 ADD PUSH1 0x0 SWAP1 SLOAD SWAP1 PUSH2 0x100 EXP SWAP1 DIV PUSH20 0xFFFFFFFFFFFFFFFFFFFFFFFFFFFFFFFFFFFFFFFF AND PUSH20 0xFFFFFFFFFFFFFFFFFFFFFFFFFFFFFFFFFFFFFFFF AND PUSH2 0x8FC DUP3 PUSH1 0x3 ADD SLOAD SWAP1 DUP2 ISZERO MUL SWAP1 PUSH1 0x40 MLOAD PUSH1 0x0 PUSH1 0x40 MLOAD DUP1 DUP4 SUB DUP2 DUP6 DUP9 DUP9 CALL SWAP4 POP POP POP POP ISZERO DUP1 ISZERO PUSH2 0x1011 JUMPI RETURNDATASIZE PUSH1 0x0 DUP1 RETURNDATACOPY RETURNDATASIZE PUSH1 0x0 REVERT JUMPDEST POP PUSH1 0x0 PUSH1 0x1 DUP4 PUSH1 0x2 ADD DUP1 SLOAD SWAP1 POP PUSH2 0x1028 SWAP2 SWAP1 PUSH2 0x2328 JUMP JUMPDEST SWAP1 POP DUP3 PUSH1 0x2 ADD DUP2 DUP2 SLOAD DUP2 LT PUSH2 0x1040 JUMPI PUSH2 0x103F PUSH2 0x1F04 JUMP JUMPDEST JUMPDEST SWAP1 PUSH1 0x0 MSTORE PUSH1 0x20 PUSH1 0x0 KECCAK256 SWAP1 PUSH1 0x7 MUL ADD DUP4 PUSH1 0x2 ADD DUP6 DUP2 SLOAD DUP2 LT PUSH2 0x1064 JUMPI PUSH2 0x1063 PUSH2 0x1F04 JUMP JUMPDEST JUMPDEST SWAP1 PUSH1 0x0 MSTORE PUSH1 0x20 PUSH1 0x0 KECCAK256 SWAP1 PUSH1 0x7 MUL ADD PUSH1 0x0 DUP3 ADD SLOAD DUP2 PUSH1 0x0 ADD SSTORE PUSH1 0x1 DUP3 ADD DUP2 PUSH1 0x1 ADD SWAP1 DUP1 SLOAD PUSH2 0x1090 SWAP1 PUSH2 0x1E55 JUMP JUMPDEST PUSH2 0x109B SWAP3 SWAP2 SWAP1 PUSH2 0x141D JUMP JUMPDEST POP PUSH1 0x2 DUP3 ADD PUSH1 0x0 SWAP1 SLOAD SWAP1 PUSH2 0x100 EXP SWAP1 DIV PUSH1 0xFF AND DUP2 PUSH1 0x2 ADD PUSH1 0x0 PUSH2 0x100 EXP DUP2 SLOAD DUP2 PUSH1 0xFF MUL NOT AND SWAP1 DUP4 PUSH1 0x2 DUP2 GT ISZERO PUSH2 0x10D4 JUMPI PUSH2 0x10D3 PUSH2 0x1777 JUMP JUMPDEST JUMPDEST MUL OR SWAP1 SSTORE POP PUSH1 0x3 DUP3 ADD SLOAD DUP2 PUSH1 0x3 ADD SSTORE PUSH1 0x4 DUP3 ADD PUSH1 0x0 SWAP1 SLOAD SWAP1 PUSH2 0x100 EXP SWAP1 DIV PUSH20 0xFFFFFFFFFFFFFFFFFFFFFFFFFFFFFFFFFFFFFFFF AND DUP2 PUSH1 0x4 ADD PUSH1 0x0 PUSH2 0x100 EXP DUP2 SLOAD DUP2 PUSH20 0xFFFFFFFFFFFFFFFFFFFFFFFFFFFFFFFFFFFFFFFF MUL NOT AND SWAP1 DUP4 PUSH20 0xFFFFFFFFFFFFFFFFFFFFFFFFFFFFFFFFFFFFFFFF AND MUL OR SWAP1 SSTORE POP PUSH1 0x5 DUP3 ADD DUP2 PUSH1 0x5 ADD SWAP1 DUP1 SLOAD PUSH2 0x115E SWAP1 PUSH2 0x1E55 JUMP JUMPDEST PUSH2 0x1169 SWAP3 SWAP2 SWAP1 PUSH2 0x141D JUMP JUMPDEST POP PUSH1 0x6 DUP3 ADD DUP2 PUSH1 0x6 ADD SWAP1 DUP1 SLOAD PUSH2 0x117E SWAP1 PUSH2 0x1E55 JUMP JUMPDEST PUSH2 0x1189 SWAP3 SWAP2 SWAP1 PUSH2 0x141D JUMP JUMPDEST POP SWAP1 POP POP DUP4 DUP4 PUSH1 0x2 ADD DUP6 DUP2 SLOAD DUP2 LT PUSH2 0x11A4 JUMPI PUSH2 0x11A3 PUSH2 0x1F04 JUMP JUMPDEST JUMPDEST SWAP1 PUSH1 0x0 MSTORE PUSH1 0x20 PUSH1 0x0 KECCAK256 SWAP1 PUSH1 0x7 MUL ADD PUSH1 0x0 ADD DUP2 SWAP1 SSTORE POP DUP3 PUSH1 0x2 ADD DUP1 SLOAD DUP1 PUSH2 0x11CD JUMPI PUSH2 0x11CC PUSH2 0x235C JUMP JUMPDEST JUMPDEST PUSH1 0x1 SWAP1 SUB DUP2 DUP2 SWAP1 PUSH1 0x0 MSTORE PUSH1 0x20 PUSH1 0x0 KECCAK256 SWAP1 PUSH1 0x7 MUL ADD PUSH1 0x0 DUP1 DUP3 ADD PUSH1 0x0 SWAP1 SSTORE PUSH1 0x1 DUP3 ADD PUSH1 0x0 PUSH2 0x11FA SWAP2 SWAP1 PUSH2 0x14AA JUMP JUMPDEST PUSH1 0x2 DUP3 ADD PUSH1 0x0 PUSH2 0x100 EXP DUP2 SLOAD SWAP1 PUSH1 0xFF MUL NOT AND SWAP1 SSTORE PUSH1 0x3 DUP3 ADD PUSH1 0x0 SWAP1 SSTORE PUSH1 0x4 DUP3 ADD PUSH1 0x0 PUSH2 0x100 EXP DUP2 SLOAD SWAP1 PUSH20 0xFFFFFFFFFFFFFFFFFFFFFFFFFFFFFFFFFFFFFFFF MUL NOT AND SWAP1 SSTORE PUSH1 0x5 DUP3 ADD PUSH1 0x0 PUSH2 0x124D SWAP2 SWAP1 PUSH2 0x14AA JUMP JUMPDEST PUSH1 0x6 DUP3 ADD PUSH1 0x0 PUSH2 0x125D SWAP2 SWAP1 PUSH2 0x14AA JUMP JUMPDEST POP POP SWAP1 SSTORE PUSH32 0x7ACA5F806DD46D14D6E6641BEE21C9B0D94D697D48D4E45423861D4348FDB1DE DUP6 DUP6 DUP5 PUSH1 0x3 ADD SLOAD DUP6 PUSH1 0x4 ADD PUSH1 0x0 SWAP1 SLOAD SWAP1 PUSH2 0x100 EXP SWAP1 DIV PUSH20 0xFFFFFFFFFFFFFFFFFFFFFFFFFFFFFFFFFFFFFFFF AND PUSH1 0x40 MLOAD PUSH2 0x12BE SWAP5 SWAP4 SWAP3 SWAP2 SWAP1 PUSH2 0x238B JUMP JUMPDEST PUSH1 0x40 MLOAD DUP1 SWAP2 SUB SWAP1 LOG1 POP POP POP POP POP JUMP JUMPDEST PUSH1 0x40 MLOAD DUP1 PUSH1 0xE0 ADD PUSH1 0x40 MSTORE DUP1 PUSH1 0x0 DUP2 MSTORE PUSH1 0x20 ADD PUSH1 0x60 DUP2 MSTORE PUSH1 0x20 ADD PUSH1 0x0 PUSH1 0x2 DUP2 GT ISZERO PUSH2 0x12FA JUMPI PUSH2 0x12F9 PUSH2 0x1777 JUMP JUMPDEST JUMPDEST DUP2 MSTORE PUSH1 0x20 ADD PUSH1 0x0 DUP2 MSTORE PUSH1 0x20 ADD PUSH1 0x0 PUSH20 0xFFFFFFFFFFFFFFFFFFFFFFFFFFFFFFFFFFFFFFFF AND DUP2 MSTORE PUSH1 0x20 ADD PUSH1 0x60 DUP2 MSTORE PUSH1 0x20 ADD PUSH1 0x60 DUP2 MSTORE POP SWAP1 JUMP JUMPDEST PUSH1 0x40 MLOAD DUP1 PUSH1 0xE0 ADD PUSH1 0x40 MSTORE DUP1 PUSH1 0x0 DUP2 MSTORE PUSH1 0x20 ADD PUSH1 0x60 DUP2 MSTORE PUSH1 0x20 ADD PUSH1 0x0 PUSH1 0x2 DUP2 GT ISZERO PUSH2 0x135F JUMPI PUSH2 0x135E PUSH2 0x1777 JUMP JUMPDEST JUMPDEST DUP2 MSTORE PUSH1 0x20 ADD PUSH1 0x0 DUP2 MSTORE PUSH1 0x20 ADD PUSH1 0x0 PUSH20 0xFFFFFFFFFFFFFFFFFFFFFFFFFFFFFFFFFFFFFFFF AND DUP2 MSTORE PUSH1 0x20 ADD PUSH1 0x60 DUP2 MSTORE PUSH1 0x20 ADD PUSH1 0x60 DUP2 MSTORE POP SWAP1 JUMP JUMPDEST DUP3 DUP1 SLOAD PUSH2 0x13A3 SWAP1 PUSH2 0x1E55 JUMP JUMPDEST SWAP1 PUSH1 0x0 MSTORE PUSH1 0x20 PUSH1 0x0 KECCAK256 SWAP1 PUSH1 0x1F ADD PUSH1 0x20 SWAP1 DIV DUP2 ADD SWAP3 DUP3 PUSH2 0x13C5 JUMPI PUSH1 0x0 DUP6 SSTORE PUSH2 0x140C JUMP JUMPDEST DUP3 PUSH1 0x1F LT PUSH2 0x13DE JUMPI DUP1 MLOAD PUSH1 0xFF NOT AND DUP4 DUP1 ADD OR DUP6 SSTORE PUSH2 0x140C JUMP JUMPDEST DUP3 DUP1 ADD PUSH1 0x1 ADD DUP6 SSTORE DUP3 ISZERO PUSH2 0x140C JUMPI SWAP2 DUP3 ADD JUMPDEST DUP3 DUP2 GT ISZERO PUSH2 0x140B JUMPI DUP3 MLOAD DUP3 SSTORE SWAP2 PUSH1 0x20 ADD SWAP2 SWAP1 PUSH1 0x1 ADD SWAP1 PUSH2 0x13F0 JUMP JUMPDEST JUMPDEST POP SWAP1 POP PUSH2 0x1419 SWAP2 SWAP1 PUSH2 0x14EA JUMP JUMPDEST POP SWAP1 JUMP JUMPDEST DUP3 DUP1 SLOAD PUSH2 0x1429 SWAP1 PUSH2 0x1E55 JUMP JUMPDEST SWAP1 PUSH1 0x0 MSTORE PUSH1 0x20 PUSH1 0x0 KECCAK256 SWAP1 PUSH1 0x1F ADD PUSH1 0x20 SWAP1 DIV DUP2 ADD SWAP3 DUP3 PUSH2 0x144B JUMPI PUSH1 0x0 DUP6 SSTORE PUSH2 0x1499 JUMP JUMPDEST DUP3 PUSH1 0x1F LT PUSH2 0x145C JUMPI DUP1 SLOAD DUP6 SSTORE PUSH2 0x1499 JUMP JUMPDEST DUP3 DUP1 ADD PUSH1 0x1 ADD DUP6 SSTORE DUP3 ISZERO PUSH2 0x1499 JUMPI PUSH1 0x0 MSTORE PUSH1 0x20 PUSH1 0x0 KECCAK256 SWAP2 PUSH1 0x1F ADD PUSH1 0x20 SWAP1 DIV DUP3 ADD JUMPDEST DUP3 DUP2 GT ISZERO PUSH2 0x1498 JUMPI DUP3 SLOAD DUP3 SSTORE SWAP2 PUSH1 0x1 ADD SWAP2 SWAP1 PUSH1 0x1 ADD SWAP1 PUSH2 0x147D JUMP JUMPDEST JUMPDEST POP SWAP1 POP PUSH2 0x14A6 SWAP2 SWAP1 PUSH2 0x14EA JUMP JUMPDEST POP SWAP1 JUMP JUMPDEST POP DUP1 SLOAD PUSH2 0x14B6 SWAP1 PUSH2 0x1E55 JUMP JUMPDEST PUSH1 0x0 DUP3 SSTORE DUP1 PUSH1 0x1F LT PUSH2 0x14C8 JUMPI POP PUSH2 0x14E7 JUMP JUMPDEST PUSH1 0x1F ADD PUSH1 0x20 SWAP1 DIV SWAP1 PUSH1 0x0 MSTORE PUSH1 0x20 PUSH1 0x0 KECCAK256 SWAP1 DUP2 ADD SWAP1 PUSH2 0x14E6 SWAP2 SWAP1 PUSH2 0x14EA JUMP JUMPDEST JUMPDEST POP JUMP JUMPDEST JUMPDEST DUP1 DUP3 GT ISZERO PUSH2 0x1503 JUMPI PUSH1 0x0 DUP2 PUSH1 0x0 SWAP1 SSTORE POP PUSH1 0x1 ADD PUSH2 0x14EB JUMP JUMPDEST POP SWAP1 JUMP JUMPDEST PUSH1 0x0 PUSH1 0x40 MLOAD SWAP1 POP SWAP1 JUMP JUMPDEST PUSH1 0x0 DUP1 REVERT JUMPDEST PUSH1 0x0 DUP1 REVERT JUMPDEST PUSH1 0x0 DUP1 REVERT JUMPDEST PUSH1 0x0 DUP1 REVERT JUMPDEST PUSH1 0x0 PUSH1 0x1F NOT PUSH1 0x1F DUP4 ADD AND SWAP1 POP SWAP2 SWAP1 POP JUMP JUMPDEST PUSH32 0x4E487B7100000000000000000000000000000000000000000000000000000000 PUSH1 0x0 MSTORE PUSH1 0x41 PUSH1 0x4 MSTORE PUSH1 0x24 PUSH1 0x0 REVERT JUMPDEST PUSH2 0x156E DUP3 PUSH2 0x1525 JUMP JUMPDEST DUP2 ADD DUP2 DUP2 LT PUSH8 0xFFFFFFFFFFFFFFFF DUP3 GT OR ISZERO PUSH2 0x158D JUMPI PUSH2 0x158C PUSH2 0x1536 JUMP JUMPDEST JUMPDEST DUP1 PUSH1 0x40 MSTORE POP POP POP JUMP JUMPDEST PUSH1 0x0 PUSH2 0x15A0 PUSH2 0x1507 JUMP JUMPDEST SWAP1 POP PUSH2 0x15AC DUP3 DUP3 PUSH2 0x1565 JUMP JUMPDEST SWAP2 SWAP1 POP JUMP JUMPDEST PUSH1 0x0 PUSH8 0xFFFFFFFFFFFFFFFF DUP3 GT ISZERO PUSH2 0x15CC JUMPI PUSH2 0x15CB PUSH2 0x1536 JUMP JUMPDEST JUMPDEST PUSH2 0x15D5 DUP3 PUSH2 0x1525 JUMP JUMPDEST SWAP1 POP PUSH1 0x20 DUP2 ADD SWAP1 POP SWAP2 SWAP1 POP JUMP JUMPDEST DUP3 DUP2 DUP4 CALLDATACOPY PUSH1 0x0 DUP4 DUP4 ADD MSTORE POP POP POP JUMP JUMPDEST PUSH1 0x0 PUSH2 0x1604 PUSH2 0x15FF DUP5 PUSH2 0x15B1 JUMP JUMPDEST PUSH2 0x1596 JUMP JUMPDEST SWAP1 POP DUP3 DUP2 MSTORE PUSH1 0x20 DUP2 ADD DUP5 DUP5 DUP5 ADD GT ISZERO PUSH2 0x1620 JUMPI PUSH2 0x161F PUSH2 0x1520 JUMP JUMPDEST JUMPDEST PUSH2 0x162B DUP5 DUP3 DUP6 PUSH2 0x15E2 JUMP JUMPDEST POP SWAP4 SWAP3 POP POP POP JUMP JUMPDEST PUSH1 0x0 DUP3 PUSH1 0x1F DUP4 ADD SLT PUSH2 0x1648 JUMPI PUSH2 0x1647 PUSH2 0x151B JUMP JUMPDEST JUMPDEST DUP2 CALLDATALOAD PUSH2 0x1658 DUP5 DUP3 PUSH1 0x20 DUP7 ADD PUSH2 0x15F1 JUMP JUMPDEST SWAP2 POP POP SWAP3 SWAP2 POP POP JUMP JUMPDEST PUSH1 0x0 PUSH1 0x20 DUP3 DUP5 SUB SLT ISZERO PUSH2 0x1677 JUMPI PUSH2 0x1676 PUSH2 0x1511 JUMP JUMPDEST JUMPDEST PUSH1 0x0 DUP3 ADD CALLDATALOAD PUSH8 0xFFFFFFFFFFFFFFFF DUP2 GT ISZERO PUSH2 0x1695 JUMPI PUSH2 0x1694 PUSH2 0x1516 JUMP JUMPDEST JUMPDEST PUSH2 0x16A1 DUP5 DUP3 DUP6 ADD PUSH2 0x1633 JUMP JUMPDEST SWAP2 POP POP SWAP3 SWAP2 POP POP JUMP JUMPDEST PUSH1 0x0 DUP2 MLOAD SWAP1 POP SWAP2 SWAP1 POP JUMP JUMPDEST PUSH1 0x0 DUP3 DUP3 MSTORE PUSH1 0x20 DUP3 ADD SWAP1 POP SWAP3 SWAP2 POP POP JUMP JUMPDEST PUSH1 0x0 DUP2 SWAP1 POP PUSH1 0x20 DUP3 ADD SWAP1 POP SWAP2 SWAP1 POP JUMP JUMPDEST PUSH1 0x0 DUP2 SWAP1 POP SWAP2 SWAP1 POP JUMP JUMPDEST PUSH2 0x16E9 DUP2 PUSH2 0x16D6 JUMP JUMPDEST DUP3 MSTORE POP POP JUMP JUMPDEST PUSH1 0x0 DUP2 MLOAD SWAP1 POP SWAP2 SWAP1 POP JUMP JUMPDEST PUSH1 0x0 DUP3 DUP3 MSTORE PUSH1 0x20 DUP3 ADD SWAP1 POP SWAP3 SWAP2 POP POP JUMP JUMPDEST PUSH1 0x0 JUMPDEST DUP4 DUP2 LT ISZERO PUSH2 0x1729 JUMPI DUP1 DUP3 ADD MLOAD DUP2 DUP5 ADD MSTORE PUSH1 0x20 DUP2 ADD SWAP1 POP PUSH2 0x170E JUMP JUMPDEST DUP4 DUP2 GT ISZERO PUSH2 0x1738 JUMPI PUSH1 0x0 DUP5 DUP5 ADD MSTORE JUMPDEST POP POP POP POP JUMP JUMPDEST PUSH1 0x0 PUSH2 0x1749 DUP3 PUSH2 0x16EF JUMP JUMPDEST PUSH2 0x1753 DUP2 DUP6 PUSH2 0x16FA JUMP JUMPDEST SWAP4 POP PUSH2 0x1763 DUP2 DUP6 PUSH1 0x20 DUP7 ADD PUSH2 0x170B JUMP JUMPDEST PUSH2 0x176C DUP2 PUSH2 0x1525 JUMP JUMPDEST DUP5 ADD SWAP2 POP POP SWAP3 SWAP2 POP POP JUMP JUMPDEST PUSH32 0x4E487B7100000000000000000000000000000000000000000000000000000000 PUSH1 0x0 MSTORE PUSH1 0x21 PUSH1 0x4 MSTORE PUSH1 0x24 PUSH1 0x0 REVERT JUMPDEST PUSH1 0x3 DUP2 LT PUSH2 0x17B7 JUMPI PUSH2 0x17B6 PUSH2 0x1777 JUMP JUMPDEST JUMPDEST POP JUMP JUMPDEST PUSH1 0x0 DUP2 SWAP1 POP PUSH2 0x17C8 DUP3 PUSH2 0x17A6 JUMP JUMPDEST SWAP2 SWAP1 POP JUMP JUMPDEST PUSH1 0x0 PUSH2 0x17D8 DUP3 PUSH2 0x17BA JUMP JUMPDEST SWAP1 POP SWAP2 SWAP1 POP JUMP JUMPDEST PUSH2 0x17E8 DUP2 PUSH2 0x17CD JUMP JUMPDEST DUP3 MSTORE POP POP JUMP JUMPDEST PUSH1 0x0 PUSH20 0xFFFFFFFFFFFFFFFFFFFFFFFFFFFFFFFFFFFFFFFF DUP3 AND SWAP1 POP SWAP2 SWAP1 POP JUMP JUMPDEST PUSH1 0x0 PUSH2 0x1819 DUP3 PUSH2 0x17EE JUMP JUMPDEST SWAP1 POP SWAP2 SWAP1 POP JUMP JUMPDEST PUSH2 0x1829 DUP2 PUSH2 0x180E JUMP JUMPDEST DUP3 MSTORE POP POP JUMP JUMPDEST PUSH1 0x0 PUSH1 0xE0 DUP4 ADD PUSH1 0x0 DUP4 ADD MLOAD PUSH2 0x1847 PUSH1 0x0 DUP7 ADD DUP3 PUSH2 0x16E0 JUMP JUMPDEST POP PUSH1 0x20 DUP4 ADD MLOAD DUP5 DUP3 SUB PUSH1 0x20 DUP7 ADD MSTORE PUSH2 0x185F DUP3 DUP3 PUSH2 0x173E JUMP JUMPDEST SWAP2 POP POP PUSH1 0x40 DUP4 ADD MLOAD PUSH2 0x1874 PUSH1 0x40 DUP7 ADD DUP3 PUSH2 0x17DF JUMP JUMPDEST POP PUSH1 0x60 DUP4 ADD MLOAD PUSH2 0x1887 PUSH1 0x60 DUP7 ADD DUP3 PUSH2 0x16E0 JUMP JUMPDEST POP PUSH1 0x80 DUP4 ADD MLOAD PUSH2 0x189A PUSH1 0x80 DUP7 ADD DUP3 PUSH2 0x1820 JUMP JUMPDEST POP PUSH1 0xA0 DUP4 ADD MLOAD DUP5 DUP3 SUB PUSH1 0xA0 DUP7 ADD MSTORE PUSH2 0x18B2 DUP3 DUP3 PUSH2 0x173E JUMP JUMPDEST SWAP2 POP POP PUSH1 0xC0 DUP4 ADD MLOAD DUP5 DUP3 SUB PUSH1 0xC0 DUP7 ADD MSTORE PUSH2 0x18CC DUP3 DUP3 PUSH2 0x173E JUMP JUMPDEST SWAP2 POP POP DUP1 SWAP2 POP POP SWAP3 SWAP2 POP POP JUMP JUMPDEST PUSH1 0x0 PUSH2 0x18E5 DUP4 DUP4 PUSH2 0x182F JUMP JUMPDEST SWAP1 POP SWAP3 SWAP2 POP POP JUMP JUMPDEST PUSH1 0x0 PUSH1 0x20 DUP3 ADD SWAP1 POP SWAP2 SWAP1 POP JUMP JUMPDEST PUSH1 0x0 PUSH2 0x1905 DUP3 PUSH2 0x16AA JUMP JUMPDEST PUSH2 0x190F DUP2 DUP6 PUSH2 0x16B5 JUMP JUMPDEST SWAP4 POP DUP4 PUSH1 0x20 DUP3 MUL DUP6 ADD PUSH2 0x1921 DUP6 PUSH2 0x16C6 JUMP JUMPDEST DUP1 PUSH1 0x0 JUMPDEST DUP6 DUP2 LT ISZERO PUSH2 0x195D JUMPI DUP5 DUP5 SUB DUP10 MSTORE DUP2 MLOAD PUSH2 0x193E DUP6 DUP3 PUSH2 0x18D9 JUMP JUMPDEST SWAP5 POP PUSH2 0x1949 DUP4 PUSH2 0x18ED JUMP JUMPDEST SWAP3 POP PUSH1 0x20 DUP11 ADD SWAP10 POP POP PUSH1 0x1 DUP2 ADD SWAP1 POP PUSH2 0x1925 JUMP JUMPDEST POP DUP3 SWAP8 POP DUP8 SWAP6 POP POP POP POP POP POP SWAP3 SWAP2 POP POP JUMP JUMPDEST PUSH1 0x0 PUSH1 0x20 DUP3 ADD SWAP1 POP DUP2 DUP2 SUB PUSH1 0x0 DUP4 ADD MSTORE PUSH2 0x1989 DUP2 DUP5 PUSH2 0x18FA JUMP JUMPDEST SWAP1 POP SWAP3 SWAP2 POP POP JUMP JUMPDEST PUSH2 0x199A DUP2 PUSH2 0x16D6 JUMP JUMPDEST DUP2 EQ PUSH2 0x19A5 JUMPI PUSH1 0x0 DUP1 REVERT JUMPDEST POP JUMP JUMPDEST PUSH1 0x0 DUP2 CALLDATALOAD SWAP1 POP PUSH2 0x19B7 DUP2 PUSH2 0x1991 JUMP JUMPDEST SWAP3 SWAP2 POP POP JUMP JUMPDEST PUSH1 0x0 DUP1 PUSH1 0x40 DUP4 DUP6 SUB SLT ISZERO PUSH2 0x19D4 JUMPI PUSH2 0x19D3 PUSH2 0x1511 JUMP JUMPDEST JUMPDEST PUSH1 0x0 DUP4 ADD CALLDATALOAD PUSH8 0xFFFFFFFFFFFFFFFF DUP2 GT ISZERO PUSH2 0x19F2 JUMPI PUSH2 0x19F1 PUSH2 0x1516 JUMP JUMPDEST JUMPDEST PUSH2 0x19FE DUP6 DUP3 DUP7 ADD PUSH2 0x1633 JUMP JUMPDEST SWAP3 POP POP PUSH1 0x20 PUSH2 0x1A0F DUP6 DUP3 DUP7 ADD PUSH2 0x19A8 JUMP JUMPDEST SWAP2 POP POP SWAP3 POP SWAP3 SWAP1 POP JUMP JUMPDEST PUSH1 0x0 PUSH1 0xE0 DUP4 ADD PUSH1 0x0 DUP4 ADD MLOAD PUSH2 0x1A31 PUSH1 0x0 DUP7 ADD DUP3 PUSH2 0x16E0 JUMP JUMPDEST POP PUSH1 0x20 DUP4 ADD MLOAD DUP5 DUP3 SUB PUSH1 0x20 DUP7 ADD MSTORE PUSH2 0x1A49 DUP3 DUP3 PUSH2 0x173E JUMP JUMPDEST SWAP2 POP POP PUSH1 0x40 DUP4 ADD MLOAD PUSH2 0x1A5E PUSH1 0x40 DUP7 ADD DUP3 PUSH2 0x17DF JUMP JUMPDEST POP PUSH1 0x60 DUP4 ADD MLOAD PUSH2 0x1A71 PUSH1 0x60 DUP7 ADD DUP3 PUSH2 0x16E0 JUMP JUMPDEST POP PUSH1 0x80 DUP4 ADD MLOAD PUSH2 0x1A84 PUSH1 0x80 DUP7 ADD DUP3 PUSH2 0x1820 JUMP JUMPDEST POP PUSH1 0xA0 DUP4 ADD MLOAD DUP5 DUP3 SUB PUSH1 0xA0 DUP7 ADD MSTORE PUSH2 0x1A9C DUP3 DUP3 PUSH2 0x173E JUMP JUMPDEST SWAP2 POP POP PUSH1 0xC0 DUP4 ADD MLOAD DUP5 DUP3 SUB PUSH1 0xC0 DUP7 ADD MSTORE PUSH2 0x1AB6 DUP3 DUP3 PUSH2 0x173E JUMP JUMPDEST SWAP2 POP POP DUP1 SWAP2 POP POP SWAP3 SWAP2 POP POP JUMP JUMPDEST PUSH1 0x0 PUSH1 0x20 DUP3 ADD SWAP1 POP DUP2 DUP2 SUB PUSH1 0x0 DUP4 ADD MSTORE PUSH2 0x1ADD DUP2 DUP5 PUSH2 0x1A19 JUMP JUMPDEST SWAP1 POP SWAP3 SWAP2 POP POP JUMP JUMPDEST PUSH1 0x0 DUP1 PUSH1 0x40 DUP4 DUP6 SUB SLT ISZERO PUSH2 0x1AFC JUMPI PUSH2 0x1AFB PUSH2 0x1511 JUMP JUMPDEST JUMPDEST PUSH1 0x0 DUP4 ADD CALLDATALOAD PUSH8 0xFFFFFFFFFFFFFFFF DUP2 GT ISZERO PUSH2 0x1B1A JUMPI PUSH2 0x1B19 PUSH2 0x1516 JUMP JUMPDEST JUMPDEST PUSH2 0x1B26 DUP6 DUP3 DUP7 ADD PUSH2 0x1633 JUMP JUMPDEST SWAP3 POP POP PUSH1 0x20 DUP4 ADD CALLDATALOAD PUSH8 0xFFFFFFFFFFFFFFFF DUP2 GT ISZERO PUSH2 0x1B47 JUMPI PUSH2 0x1B46 PUSH2 0x1516 JUMP JUMPDEST JUMPDEST PUSH2 0x1B53 DUP6 DUP3 DUP7 ADD PUSH2 0x1633 JUMP JUMPDEST SWAP2 POP POP SWAP3 POP SWAP3 SWAP1 POP JUMP JUMPDEST PUSH1 0x0 DUP2 ISZERO ISZERO SWAP1 POP SWAP2 SWAP1 POP JUMP JUMPDEST PUSH2 0x1B72 DUP2 PUSH2 0x1B5D JUMP JUMPDEST DUP3 MSTORE POP POP JUMP JUMPDEST PUSH1 0x0 PUSH1 0x20 DUP3 ADD SWAP1 POP PUSH2 0x1B8D PUSH1 0x0 DUP4 ADD DUP5 PUSH2 0x1B69 JUMP JUMPDEST SWAP3 SWAP2 POP POP JUMP JUMPDEST PUSH1 0x3 DUP2 LT PUSH2 0x1BA0 JUMPI PUSH1 0x0 DUP1 REVERT JUMPDEST POP JUMP JUMPDEST PUSH1 0x0 DUP2 CALLDATALOAD SWAP1 POP PUSH2 0x1BB2 DUP2 PUSH2 0x1B93 JUMP JUMPDEST SWAP3 SWAP2 POP POP JUMP JUMPDEST PUSH1 0x0 DUP1 PUSH1 0x0 DUP1 PUSH1 0x0 DUP1 PUSH1 0xC0 DUP8 DUP10 SUB SLT ISZERO PUSH2 0x1BD5 JUMPI PUSH2 0x1BD4 PUSH2 0x1511 JUMP JUMPDEST JUMPDEST PUSH1 0x0 DUP8 ADD CALLDATALOAD PUSH8 0xFFFFFFFFFFFFFFFF DUP2 GT ISZERO PUSH2 0x1BF3 JUMPI PUSH2 0x1BF2 PUSH2 0x1516 JUMP JUMPDEST JUMPDEST PUSH2 0x1BFF DUP10 DUP3 DUP11 ADD PUSH2 0x1633 JUMP JUMPDEST SWAP7 POP POP PUSH1 0x20 PUSH2 0x1C10 DUP10 DUP3 DUP11 ADD PUSH2 0x19A8 JUMP JUMPDEST SWAP6 POP POP PUSH1 0x40 DUP8 ADD CALLDATALOAD PUSH8 0xFFFFFFFFFFFFFFFF DUP2 GT ISZERO PUSH2 0x1C31 JUMPI PUSH2 0x1C30 PUSH2 0x1516 JUMP JUMPDEST JUMPDEST PUSH2 0x1C3D DUP10 DUP3 DUP11 ADD PUSH2 0x1633 JUMP JUMPDEST SWAP5 POP POP PUSH1 0x60 PUSH2 0x1C4E DUP10 DUP3 DUP11 ADD PUSH2 0x1BA3 JUMP JUMPDEST SWAP4 POP POP PUSH1 0x80 DUP8 ADD CALLDATALOAD PUSH8 0xFFFFFFFFFFFFFFFF DUP2 GT ISZERO PUSH2 0x1C6F JUMPI PUSH2 0x1C6E PUSH2 0x1516 JUMP JUMPDEST JUMPDEST PUSH2 0x1C7B DUP10 DUP3 DUP11 ADD PUSH2 0x1633 JUMP JUMPDEST SWAP3 POP POP PUSH1 0xA0 DUP8 ADD CALLDATALOAD PUSH8 0xFFFFFFFFFFFFFFFF DUP2 GT ISZERO PUSH2 0x1C9C JUMPI PUSH2 0x1C9B PUSH2 0x1516 JUMP JUMPDEST JUMPDEST PUSH2 0x1CA8 DUP10 DUP3 DUP11 ADD PUSH2 0x1633 JUMP JUMPDEST SWAP2 POP POP SWAP3 SWAP6 POP SWAP3 SWAP6 POP SWAP3 SWAP6 JUMP JUMPDEST PUSH1 0x0 DUP1 PUSH1 0x0 DUP1 PUSH1 0x80 DUP6 DUP8 SUB SLT ISZERO PUSH2 0x1CCF JUMPI PUSH2 0x1CCE PUSH2 0x1511 JUMP JUMPDEST JUMPDEST PUSH1 0x0 DUP6 ADD CALLDATALOAD PUSH8 0xFFFFFFFFFFFFFFFF DUP2 GT ISZERO PUSH2 0x1CED JUMPI PUSH2 0x1CEC PUSH2 0x1516 JUMP JUMPDEST JUMPDEST PUSH2 0x1CF9 DUP8 DUP3 DUP9 ADD PUSH2 0x1633 JUMP JUMPDEST SWAP5 POP POP PUSH1 0x20 DUP6 ADD CALLDATALOAD PUSH8 0xFFFFFFFFFFFFFFFF DUP2 GT ISZERO PUSH2 0x1D1A JUMPI PUSH2 0x1D19 PUSH2 0x1516 JUMP JUMPDEST JUMPDEST PUSH2 0x1D26 DUP8 DUP3 DUP9 ADD PUSH2 0x1633 JUMP JUMPDEST SWAP4 POP POP PUSH1 0x40 DUP6 ADD CALLDATALOAD PUSH8 0xFFFFFFFFFFFFFFFF DUP2 GT ISZERO PUSH2 0x1D47 JUMPI PUSH2 0x1D46 PUSH2 0x1516 JUMP JUMPDEST JUMPDEST PUSH2 0x1D53 DUP8 DUP3 DUP9 ADD PUSH2 0x1633 JUMP JUMPDEST SWAP3 POP POP PUSH1 0x60 DUP6 ADD CALLDATALOAD PUSH8 0xFFFFFFFFFFFFFFFF DUP2 GT ISZERO PUSH2 0x1D74 JUMPI PUSH2 0x1D73 PUSH2 0x1516 JUMP JUMPDEST JUMPDEST PUSH2 0x1D80 DUP8 DUP3 DUP9 ADD PUSH2 0x1633 JUMP JUMPDEST SWAP2 POP POP SWAP3 SWAP6 SWAP2 SWAP5 POP SWAP3 POP JUMP JUMPDEST PUSH2 0x1D95 DUP2 PUSH2 0x180E JUMP JUMPDEST DUP3 MSTORE POP POP JUMP JUMPDEST PUSH2 0x1DA4 DUP2 PUSH2 0x16D6 JUMP JUMPDEST DUP3 MSTORE POP POP JUMP JUMPDEST PUSH1 0x0 PUSH1 0x40 DUP3 ADD SWAP1 POP PUSH2 0x1DBF PUSH1 0x0 DUP4 ADD DUP6 PUSH2 0x1D8C JUMP JUMPDEST PUSH2 0x1DCC PUSH1 0x20 DUP4 ADD DUP5 PUSH2 0x1D9B JUMP JUMPDEST SWAP4 SWAP3 POP POP POP JUMP JUMPDEST PUSH1 0x0 DUP2 SWAP1 POP SWAP3 SWAP2 POP POP JUMP JUMPDEST PUSH1 0x0 PUSH2 0x1DE9 DUP3 PUSH2 0x16EF JUMP JUMPDEST PUSH2 0x1DF3 DUP2 DUP6 PUSH2 0x1DD3 JUMP JUMPDEST SWAP4 POP PUSH2 0x1E03 DUP2 DUP6 PUSH1 0x20 DUP7 ADD PUSH2 0x170B JUMP JUMPDEST DUP1 DUP5 ADD SWAP2 POP POP SWAP3 SWAP2 POP POP JUMP JUMPDEST PUSH1 0x0 PUSH2 0x1E1B DUP3 DUP5 PUSH2 0x1DDE JUMP JUMPDEST SWAP2 POP DUP2 SWAP1 POP SWAP3 SWAP2 POP POP JUMP JUMPDEST PUSH32 0x4E487B7100000000000000000000000000000000000000000000000000000000 PUSH1 0x0 MSTORE PUSH1 0x22 PUSH1 0x4 MSTORE PUSH1 0x24 PUSH1 0x0 REVERT JUMPDEST PUSH1 0x0 PUSH1 0x2 DUP3 DIV SWAP1 POP PUSH1 0x1 DUP3 AND DUP1 PUSH2 0x1E6D JUMPI PUSH1 0x7F DUP3 AND SWAP2 POP JUMPDEST PUSH1 0x20 DUP3 LT DUP2 EQ ISZERO PUSH2 0x1E81 JUMPI PUSH2 0x1E80 PUSH2 0x1E26 JUMP JUMPDEST JUMPDEST POP SWAP2 SWAP1 POP JUMP JUMPDEST PUSH1 0x0 DUP3 DUP3 MSTORE PUSH1 0x20 DUP3 ADD SWAP1 POP SWAP3 SWAP2 POP POP JUMP JUMPDEST PUSH32 0x55736572206E6F7420666F756E64000000000000000000000000000000000000 PUSH1 0x0 DUP3 ADD MSTORE POP JUMP JUMPDEST PUSH1 0x0 PUSH2 0x1ECE PUSH1 0xE DUP4 PUSH2 0x1E87 JUMP JUMPDEST SWAP2 POP PUSH2 0x1ED9 DUP3 PUSH2 0x1E98 JUMP JUMPDEST PUSH1 0x20 DUP3 ADD SWAP1 POP SWAP2 SWAP1 POP JUMP JUMPDEST PUSH1 0x0 PUSH1 0x20 DUP3 ADD SWAP1 POP DUP2 DUP2 SUB PUSH1 0x0 DUP4 ADD MSTORE PUSH2 0x1EFD DUP2 PUSH2 0x1EC1 JUMP JUMPDEST SWAP1 POP SWAP2 SWAP1 POP JUMP JUMPDEST PUSH32 0x4E487B7100000000000000000000000000000000000000000000000000000000 PUSH1 0x0 MSTORE PUSH1 0x32 PUSH1 0x4 MSTORE PUSH1 0x24 PUSH1 0x0 REVERT JUMPDEST PUSH32 0x4E487B7100000000000000000000000000000000000000000000000000000000 PUSH1 0x0 MSTORE PUSH1 0x11 PUSH1 0x4 MSTORE PUSH1 0x24 PUSH1 0x0 REVERT JUMPDEST PUSH1 0x0 PUSH2 0x1F6D DUP3 PUSH2 0x16D6 JUMP JUMPDEST SWAP2 POP PUSH32 0xFFFFFFFFFFFFFFFFFFFFFFFFFFFFFFFFFFFFFFFFFFFFFFFFFFFFFFFFFFFFFFFF DUP3 EQ ISZERO PUSH2 0x1FA0 JUMPI PUSH2 0x1F9F PUSH2 0x1F33 JUMP JUMPDEST JUMPDEST PUSH1 0x1 DUP3 ADD SWAP1 POP SWAP2 SWAP1 POP JUMP JUMPDEST PUSH32 0x496E76616C6964207461736B20696E6465780000000000000000000000000000 PUSH1 0x0 DUP3 ADD MSTORE POP JUMP JUMPDEST PUSH1 0x0 PUSH2 0x1FE1 PUSH1 0x12 DUP4 PUSH2 0x1E87 JUMP JUMPDEST SWAP2 POP PUSH2 0x1FEC DUP3 PUSH2 0x1FAB JUMP JUMPDEST PUSH1 0x20 DUP3 ADD SWAP1 POP SWAP2 SWAP1 POP JUMP JUMPDEST PUSH1 0x0 PUSH1 0x20 DUP3 ADD SWAP1 POP DUP2 DUP2 SUB PUSH1 0x0 DUP4 ADD MSTORE PUSH2 0x2010 DUP2 PUSH2 0x1FD4 JUMP JUMPDEST SWAP1 POP SWAP2 SWAP1 POP JUMP JUMPDEST PUSH1 0x0 DUP2 SWAP1 POP SWAP3 SWAP2 POP POP JUMP JUMPDEST PUSH1 0x0 DUP2 SWAP1 POP DUP2 PUSH1 0x0 MSTORE PUSH1 0x20 PUSH1 0x0 KECCAK256 SWAP1 POP SWAP2 SWAP1 POP JUMP JUMPDEST PUSH1 0x0 DUP2 SLOAD PUSH2 0x2044 DUP2 PUSH2 0x1E55 JUMP JUMPDEST PUSH2 0x204E DUP2 DUP7 PUSH2 0x2017 JUMP JUMPDEST SWAP5 POP PUSH1 0x1 DUP3 AND PUSH1 0x0 DUP2 EQ PUSH2 0x2069 JUMPI PUSH1 0x1 DUP2 EQ PUSH2 0x207A JUMPI PUSH2 0x20AD JUMP JUMPDEST PUSH1 0xFF NOT DUP4 AND DUP7 MSTORE DUP2 DUP7 ADD SWAP4 POP PUSH2 0x20AD JUMP JUMPDEST PUSH2 0x2083 DUP6 PUSH2 0x2022 JUMP JUMPDEST PUSH1 0x0 JUMPDEST DUP4 DUP2 LT ISZERO PUSH2 0x20A5 JUMPI DUP2 SLOAD DUP2 DUP10 ADD MSTORE PUSH1 0x1 DUP3 ADD SWAP2 POP PUSH1 0x20 DUP2 ADD SWAP1 POP PUSH2 0x2086 JUMP JUMPDEST DUP4 DUP9 ADD SWAP6 POP POP POP JUMPDEST POP POP POP SWAP3 SWAP2 POP POP JUMP JUMPDEST PUSH1 0x0 PUSH2 0x20C2 DUP3 DUP5 PUSH2 0x2037 JUMP JUMPDEST SWAP2 POP DUP2 SWAP1 POP SWAP3 SWAP2 POP POP JUMP JUMPDEST PUSH1 0x0 PUSH2 0x20D8 DUP3 PUSH2 0x16EF JUMP JUMPDEST PUSH2 0x20E2 DUP2 DUP6 PUSH2 0x1E87 JUMP JUMPDEST SWAP4 POP PUSH2 0x20F2 DUP2 DUP6 PUSH1 0x20 DUP7 ADD PUSH2 0x170B JUMP JUMPDEST PUSH2 0x20FB DUP2 PUSH2 0x1525 JUMP JUMPDEST DUP5 ADD SWAP2 POP POP SWAP3 SWAP2 POP POP JUMP JUMPDEST PUSH2 0x210F DUP2 PUSH2 0x17CD JUMP JUMPDEST DUP3 MSTORE POP POP JUMP JUMPDEST PUSH1 0x0 PUSH1 0xC0 DUP3 ADD SWAP1 POP DUP2 DUP2 SUB PUSH1 0x0 DUP4 ADD MSTORE PUSH2 0x212F DUP2 DUP10 PUSH2 0x20CD JUMP JUMPDEST SWAP1 POP PUSH2 0x213E PUSH1 0x20 DUP4 ADD DUP9 PUSH2 0x1D9B JUMP JUMPDEST DUP2 DUP2 SUB PUSH1 0x40 DUP4 ADD MSTORE PUSH2 0x2150 DUP2 DUP8 PUSH2 0x20CD JUMP JUMPDEST SWAP1 POP PUSH2 0x215F PUSH1 0x60 DUP4 ADD DUP7 PUSH2 0x2106 JUMP JUMPDEST DUP2 DUP2 SUB PUSH1 0x80 DUP4 ADD MSTORE PUSH2 0x2171 DUP2 DUP6 PUSH2 0x20CD JUMP JUMPDEST SWAP1 POP DUP2 DUP2 SUB PUSH1 0xA0 DUP4 ADD MSTORE PUSH2 0x2185 DUP2 DUP5 PUSH2 0x20CD JUMP JUMPDEST SWAP1 POP SWAP8 SWAP7 POP POP POP POP POP POP POP JUMP JUMPDEST PUSH32 0x506C656173652073656E6420736F6D6520657468657220746F20637265617465 PUSH1 0x0 DUP3 ADD MSTORE PUSH32 0x206120746F646F206C6973740000000000000000000000000000000000000000 PUSH1 0x20 DUP3 ADD MSTORE POP JUMP JUMPDEST PUSH1 0x0 PUSH2 0x21EE PUSH1 0x2C DUP4 PUSH2 0x1E87 JUMP JUMPDEST SWAP2 POP PUSH2 0x21F9 DUP3 PUSH2 0x2192 JUMP JUMPDEST PUSH1 0x40 DUP3 ADD SWAP1 POP SWAP2 SWAP1 POP JUMP JUMPDEST PUSH1 0x0 PUSH1 0x20 DUP3 ADD SWAP1 POP DUP2 DUP2 SUB PUSH1 0x0 DUP4 ADD MSTORE PUSH2 0x221D DUP2 PUSH2 0x21E1 JUMP JUMPDEST SWAP1 POP SWAP2 SWAP1 POP JUMP JUMPDEST PUSH1 0x0 PUSH1 0xC0 DUP3 ADD SWAP1 POP DUP2 DUP2 SUB PUSH1 0x0 DUP4 ADD MSTORE PUSH2 0x223E DUP2 DUP10 PUSH2 0x20CD JUMP JUMPDEST SWAP1 POP PUSH2 0x224D PUSH1 0x20 DUP4 ADD DUP9 PUSH2 0x1D9B JUMP JUMPDEST PUSH2 0x225A PUSH1 0x40 DUP4 ADD DUP8 PUSH2 0x1D9B JUMP JUMPDEST PUSH2 0x2267 PUSH1 0x60 DUP4 ADD DUP7 PUSH2 0x1D8C JUMP JUMPDEST DUP2 DUP2 SUB PUSH1 0x80 DUP4 ADD MSTORE PUSH2 0x2279 DUP2 DUP6 PUSH2 0x20CD JUMP JUMPDEST SWAP1 POP DUP2 DUP2 SUB PUSH1 0xA0 DUP4 ADD MSTORE PUSH2 0x228D DUP2 DUP5 PUSH2 0x20CD JUMP JUMPDEST SWAP1 POP SWAP8 SWAP7 POP POP POP POP POP POP POP JUMP JUMPDEST PUSH32 0x557365726E616D6520616C726561647920657869737473000000000000000000 PUSH1 0x0 DUP3 ADD MSTORE POP JUMP JUMPDEST PUSH1 0x0 PUSH2 0x22D0 PUSH1 0x17 DUP4 PUSH2 0x1E87 JUMP JUMPDEST SWAP2 POP PUSH2 0x22DB DUP3 PUSH2 0x229A JUMP JUMPDEST PUSH1 0x20 DUP3 ADD SWAP1 POP SWAP2 SWAP1 POP JUMP JUMPDEST PUSH1 0x0 PUSH1 0x20 DUP3 ADD SWAP1 POP DUP2 DUP2 SUB PUSH1 0x0 DUP4 ADD MSTORE PUSH2 0x22FF DUP2 PUSH2 0x22C3 JUMP JUMPDEST SWAP1 POP SWAP2 SWAP1 POP JUMP JUMPDEST PUSH1 0x0 PUSH1 0x20 DUP3 ADD SWAP1 POP DUP2 DUP2 SUB PUSH1 0x0 DUP4 ADD MSTORE PUSH2 0x2320 DUP2 DUP5 PUSH2 0x20CD JUMP JUMPDEST SWAP1 POP SWAP3 SWAP2 POP POP JUMP JUMPDEST PUSH1 0x0 PUSH2 0x2333 DUP3 PUSH2 0x16D6 JUMP JUMPDEST SWAP2 POP PUSH2 0x233E DUP4 PUSH2 0x16D6 JUMP JUMPDEST SWAP3 POP DUP3 DUP3 LT ISZERO PUSH2 0x2351 JUMPI PUSH2 0x2350 PUSH2 0x1F33 JUMP JUMPDEST JUMPDEST DUP3 DUP3 SUB SWAP1 POP SWAP3 SWAP2 POP POP JUMP JUMPDEST PUSH32 0x4E487B7100000000000000000000000000000000000000000000000000000000 PUSH1 0x0 MSTORE PUSH1 0x31 PUSH1 0x4 MSTORE PUSH1 0x24 PUSH1 0x0 REVERT JUMPDEST PUSH1 0x0 PUSH1 0x80 DUP3 ADD SWAP1 POP DUP2 DUP2 SUB PUSH1 0x0 DUP4 ADD MSTORE PUSH2 0x23A5 DUP2 DUP8 PUSH2 0x20CD JUMP JUMPDEST SWAP1 POP PUSH2 0x23B4 PUSH1 0x20 DUP4 ADD DUP7 PUSH2 0x1D9B JUMP JUMPDEST PUSH2 0x23C1 PUSH1 0x40 DUP4 ADD DUP6 PUSH2 0x1D9B JUMP JUMPDEST PUSH2 0x23CE PUSH1 0x60 DUP4 ADD DUP5 PUSH2 0x1D8C JUMP JUMPDEST SWAP6 SWAP5 POP POP POP POP POP JUMP INVALID LOG2 PUSH5 0x6970667358 0x22 SLT KECCAK256 EQ 0xB9 0xE PUSH12 0x43F68F828F080EDA77DE2D03 PUSH15 0x22861ACB4FA0D22A51374C3739FAC7 PUSH5 0x736F6C6343 STOP ADDMOD MULMOD STOP CALLER "},"methodIdentifiers":{"createTask(string,string,string,string)":"72a9f819","createUser(string,string)":"87b162b5","deleteTask(string,uint256)":"c448feaf","getContractInfo()":"7cc1f867","getTaskByIndex(string,uint256)":"38b818c8","getUserTasks(string)":"0ae79945","login(string,string)":"58467dbc","updateTask(string,uint256,string,uint8,string,string)":"6647372e"}}}}}