{
  "_format": "hh-sol-artifact-1",
  "contractName": "TodoList",
  "sourceName": "contracts/TodoList.sol",
  "abi": [
    {
      "inputs": [
        {
          "internalType": "uint256",
          "name": "_listId",
          "type": "uint256"
        },
        {
          "internalType": "string",
          "name": "_todoList",
          "type": "string"
        }
      ],
      "name": "createTodoList",
      "outputs": [],
      "stateMutability": "payable",
      "type": "function"
    },
    {
      "inputs": [
        {
          "internalType": "string",
          "name": "_username",
          "type": "string"
        },
        {
          "internalType": "string",
          "name": "_password",
          "type": "string"
        }
      ],
      "name": "createUser",
      "outputs": [],
      "stateMutability": "nonpayable",
      "type": "function"
    },
    {
      "inputs": [
        {
          "internalType": "uint256",
          "name": "_listId",
          "type": "uint256"
        },
        {
          "internalType": "uint256",
          "name": "_itemId",
          "type": "uint256"
        }
      ],
      "name": "deleteTodoItem",
      "outputs": [
        {
          "internalType": "uint256",
          "name": "",
          "type": "uint256"
        }
      ],
      "stateMutability": "nonpayable",
      "type": "function"
    },
    {
      "inputs": [
        {
          "internalType": "uint256",
          "name": "_listId",
          "type": "uint256"
        }
      ],
      "name": "getTodoList",
      "outputs": [
        {
          "components": [
            {
              "internalType": "string",
              "name": "content",
              "type": "string"
            },
            {
              "internalType": "bool",
              "name": "is_deleted",
              "type": "bool"
            },
            {
              "internalType": "uint256",
              "name": "createdAt",
              "type": "uint256"
            },
            {
              "internalType": "enum TodoList.TodoStatus",
              "name": "status",
              "type": "uint8"
            },
            {
              "internalType": "address",
              "name": "payer",
              "type": "address"
            },
            {
              "internalType": "uint256",
              "name": "amount",
              "type": "uint256"
            }
          ],
          "internalType": "struct TodoList.TodoItem[]",
          "name": "",
          "type": "tuple[]"
        }
      ],
      "stateMutability": "view",
      "type": "function"
    },
    {
      "inputs": [],
      "name": "getTodoListCount",
      "outputs": [
        {
          "internalType": "uint256",
          "name": "",
          "type": "uint256"
        }
      ],
      "stateMutability": "view",
      "type": "function"
    },
    {
      "inputs": [
        {
          "internalType": "uint256",
          "name": "_listId",
          "type": "uint256"
        },
        {
          "internalType": "uint256",
          "name": "_itemId",
          "type": "uint256"
        }
      ],
      "name": "markTodoItemDeleted",
      "outputs": [
        {
          "internalType": "uint256",
          "name": "",
          "type": "uint256"
        }
      ],
      "stateMutability": "nonpayable",
      "type": "function"
    },
    {
      "inputs": [
        {
          "internalType": "uint256",
          "name": "_listId",
          "type": "uint256"
        },
        {
          "internalType": "uint256",
          "name": "_itemId",
          "type": "uint256"
        },
        {
          "internalType": "string",
          "name": "_newContent",
          "type": "string"
        }
      ],
      "name": "updateTodoItem",
      "outputs": [],
      "stateMutability": "nonpayable",
      "type": "function"
    }
  ],
  "bytecode": "0x608060405234801561001057600080fd5b506120e3806100206000396000f3fe6080604052600436106100705760003560e01c806367c522861161004e57806367c522861461012c57806387b162b5146101555780638d8dcfde1461017e578063aebdd9871461019a57610070565b8063018d101d1461007557806315fbe450146100b257806360859e13146100ef575b600080fd5b34801561008157600080fd5b5061009c600480360381019061009791906115a0565b6101c5565b6040516100a991906115ef565b60405180910390f35b3480156100be57600080fd5b506100d960048036038101906100d491906115a0565b6106a5565b6040516100e691906115ef565b60405180910390f35b3480156100fb57600080fd5b506101166004803603810190610111919061160a565b610a1d565b60405161012391906118fd565b60405180910390f35b34801561013857600080fd5b50610153600480360381019061014e9190611a54565b610cb0565b005b34801561016157600080fd5b5061017c60048036038101906101779190611ac3565b610e66565b005b61019860048036038101906101939190611b3b565b61102e565b005b3480156101a657600080fd5b506101af61130e565b6040516101bc91906115ef565b60405180910390f35b6000806000803373ffffffffffffffffffffffffffffffffffffffff1673ffffffffffffffffffffffffffffffffffffffff168152602001908152602001600020600001805461021490611bc6565b905011610256576040517f08c379a000000000000000000000000000000000000000000000000000000000815260040161024d90611c55565b60405180910390fd5b6000803373ffffffffffffffffffffffffffffffffffffffff1673ffffffffffffffffffffffffffffffffffffffff16815260200190815260200160002060020160008481526020019081526020016000208054905082106102ed576040517f08c379a00000000000000000000000000000000000000000000000000000000081526004016102e490611cc1565b60405180910390fd5b6000803373ffffffffffffffffffffffffffffffffffffffff1673ffffffffffffffffffffffffffffffffffffffff1681526020019081526020016000206002016000848152602001908152602001600020828154811061035157610350611ce1565b5b906000526020600020906005020160010160009054906101000a900460ff16156103b0576040517f08c379a00000000000000000000000000000000000000000000000000000000081526004016103a790611d5c565b60405180910390fd5b60006103bc84846106a5565b905060008060003373ffffffffffffffffffffffffffffffffffffffff1673ffffffffffffffffffffffffffffffffffffffff1681526020019081526020016000206002016000868152602001908152602001600020905060008490505b6001828054905061042b9190611dab565b81101561059b57816001826104409190611ddf565b8154811061045157610450611ce1565b5b906000526020600020906005020182828154811061047257610471611ce1565b5b9060005260206000209060050201600082018160000190805461049490611bc6565b61049f9291906113e6565b506001820160009054906101000a900460ff168160010160006101000a81548160ff021916908315150217905550600282015481600201556003820160009054906101000a900460ff168160030160006101000a81548160ff0219169083600281111561050f5761050e611726565b5b02179055506003820160019054906101000a900473ffffffffffffffffffffffffffffffffffffffff168160030160016101000a81548173ffffffffffffffffffffffffffffffffffffffff021916908373ffffffffffffffffffffffffffffffffffffffff16021790555060048201548160040155905050808061059390611e35565b91505061041a565b50808054806105ad576105ac611e7e565b5b6001900381819060005260206000209060050201600080820160006105d29190611473565b6001820160006101000a81549060ff021916905560028201600090556003820160006101000a81549060ff02191690556003820160016101000a81549073ffffffffffffffffffffffffffffffffffffffff021916905560048201600090555050905560008180549050141561069a576000803373ffffffffffffffffffffffffffffffffffffffff1673ffffffffffffffffffffffffffffffffffffffff168152602001908152602001600020600301600081548092919061069490611ead565b91905055505b819250505092915050565b6000806000803373ffffffffffffffffffffffffffffffffffffffff1673ffffffffffffffffffffffffffffffffffffffff16815260200190815260200160002060000180546106f490611bc6565b905011610736576040517f08c379a000000000000000000000000000000000000000000000000000000000815260040161072d90611c55565b60405180910390fd5b6000803373ffffffffffffffffffffffffffffffffffffffff1673ffffffffffffffffffffffffffffffffffffffff16815260200190815260200160002060020160008481526020019081526020016000208054905082106107cd576040517f08c379a00000000000000000000000000000000000000000000000000000000081526004016107c490611cc1565b60405180910390fd5b6000803373ffffffffffffffffffffffffffffffffffffffff1673ffffffffffffffffffffffffffffffffffffffff1681526020019081526020016000206002016000848152602001908152602001600020828154811061083157610830611ce1565b5b906000526020600020906005020160010160009054906101000a900460ff1615610890576040517f08c379a000000000000000000000000000000000000000000000000000000000815260040161088790611d5c565b60405180910390fd5b60016000803373ffffffffffffffffffffffffffffffffffffffff1673ffffffffffffffffffffffffffffffffffffffff168152602001908152602001600020600201600085815260200190815260200160002083815481106108f6576108f5611ce1565b5b906000526020600020906005020160010160006101000a81548160ff02191690831515021790555060008060003373ffffffffffffffffffffffffffffffffffffffff1673ffffffffffffffffffffffffffffffffffffffff1681526020019081526020016000206002016000858152602001908152602001600020838154811061098457610983611ce1565b5b906000526020600020906005020160040154905060008060003373ffffffffffffffffffffffffffffffffffffffff1673ffffffffffffffffffffffffffffffffffffffff168152602001908152602001600020600201600086815260200190815260200160002084815481106109fe576109fd611ce1565b5b9060005260206000209060050201600401819055508091505092915050565b606060008060003373ffffffffffffffffffffffffffffffffffffffff1673ffffffffffffffffffffffffffffffffffffffff1681526020019081526020016000206000018054610a6d90611bc6565b905011610aaf576040517f08c379a0000000000000000000000000000000000000000000000000000000008152600401610aa690611c55565b60405180910390fd5b6000803373ffffffffffffffffffffffffffffffffffffffff1673ffffffffffffffffffffffffffffffffffffffff1681526020019081526020016000206002016000838152602001908152602001600020805480602002602001604051908101604052809291908181526020016000905b82821015610ca557838290600052602060002090600502016040518060c0016040529081600082018054610b5490611bc6565b80601f0160208091040260200160405190810160405280929190818152602001828054610b8090611bc6565b8015610bcd5780601f10610ba257610100808354040283529160200191610bcd565b820191906000526020600020905b815481529060010190602001808311610bb057829003601f168201915b505050505081526020016001820160009054906101000a900460ff16151515158152602001600282015481526020016003820160009054906101000a900460ff166002811115610c2057610c1f611726565b5b6002811115610c3257610c31611726565b5b81526020016003820160019054906101000a900473ffffffffffffffffffffffffffffffffffffffff1673ffffffffffffffffffffffffffffffffffffffff1673ffffffffffffffffffffffffffffffffffffffff16815260200160048201548152505081526020019060010190610b21565b505050509050919050565b60008060003373ffffffffffffffffffffffffffffffffffffffff1673ffffffffffffffffffffffffffffffffffffffff1681526020019081526020016000206000018054610cfe90611bc6565b905011610d40576040517f08c379a0000000000000000000000000000000000000000000000000000000008152600401610d3790611c55565b60405180910390fd5b6000803373ffffffffffffffffffffffffffffffffffffffff1673ffffffffffffffffffffffffffffffffffffffff1681526020019081526020016000206002016000848152602001908152602001600020805490508210610dd7576040517f08c379a0000000000000000000000000000000000000000000000000000000008152600401610dce90611cc1565b60405180910390fd5b806000803373ffffffffffffffffffffffffffffffffffffffff1673ffffffffffffffffffffffffffffffffffffffff16815260200190815260200160002060020160008581526020019081526020016000208381548110610e3c57610e3b611ce1565b5b90600052602060002090600502016000019080519060200190610e609291906114b3565b50505050565b6000825111610eaa576040517f08c379a0000000000000000000000000000000000000000000000000000000008152600401610ea190611f23565b60405180910390fd5b6000815111610eee576040517f08c379a0000000000000000000000000000000000000000000000000000000008152600401610ee590611f8f565b60405180910390fd5b60008060003373ffffffffffffffffffffffffffffffffffffffff1673ffffffffffffffffffffffffffffffffffffffff1681526020019081526020016000206000018054610f3c90611bc6565b905014610f7e576040517f08c379a0000000000000000000000000000000000000000000000000000000008152600401610f7590611ffb565b60405180910390fd5b816000803373ffffffffffffffffffffffffffffffffffffffff1673ffffffffffffffffffffffffffffffffffffffff1681526020019081526020016000206000019080519060200190610fd39291906114b3565b50806000803373ffffffffffffffffffffffffffffffffffffffff1673ffffffffffffffffffffffffffffffffffffffff16815260200190815260200160002060010190805190602001906110299291906114b3565b505050565b60008060003373ffffffffffffffffffffffffffffffffffffffff1673ffffffffffffffffffffffffffffffffffffffff168152602001908152602001600020600001805461107c90611bc6565b9050116110be576040517f08c379a00000000000000000000000000000000000000000000000000000000081526004016110b590611c55565b60405180910390fd5b60003411611101576040517f08c379a00000000000000000000000000000000000000000000000000000000081526004016110f89061208d565b60405180910390fd5b60008060003373ffffffffffffffffffffffffffffffffffffffff1673ffffffffffffffffffffffffffffffffffffffff16815260200190815260200160002060020160008481526020019081526020016000209050806040518060c001604052808481526020016000151581526020014281526020016000600281111561118c5761118b611726565b5b81526020013373ffffffffffffffffffffffffffffffffffffffff16815260200134815250908060018154018082558091505060019003906000526020600020906005020160009091909190915060008201518160000190805190602001906111f69291906114b3565b5060208201518160010160006101000a81548160ff0219169083151502179055506040820151816002015560608201518160030160006101000a81548160ff0219169083600281111561124c5761124b611726565b5b021790555060808201518160030160016101000a81548173ffffffffffffffffffffffffffffffffffffffff021916908373ffffffffffffffffffffffffffffffffffffffff16021790555060a082015181600401555050600181805490501415611309576000803373ffffffffffffffffffffffffffffffffffffffff1673ffffffffffffffffffffffffffffffffffffffff168152602001908152602001600020600301600081548092919061130390611e35565b91905055505b505050565b6000806000803373ffffffffffffffffffffffffffffffffffffffff1673ffffffffffffffffffffffffffffffffffffffff168152602001908152602001600020600001805461135d90611bc6565b90501161139f576040517f08c379a000000000000000000000000000000000000000000000000000000000815260040161139690611c55565b60405180910390fd5b6000803373ffffffffffffffffffffffffffffffffffffffff1673ffffffffffffffffffffffffffffffffffffffff16815260200190815260200160002060030154905090565b8280546113f290611bc6565b90600052602060002090601f0160209004810192826114145760008555611462565b82601f106114255780548555611462565b8280016001018555821561146257600052602060002091601f016020900482015b82811115611461578254825591600101919060010190611446565b5b50905061146f9190611539565b5090565b50805461147f90611bc6565b6000825580601f1061149157506114b0565b601f0160209004906000526020600020908101906114af9190611539565b5b50565b8280546114bf90611bc6565b90600052602060002090601f0160209004810192826114e15760008555611528565b82601f106114fa57805160ff1916838001178555611528565b82800160010185558215611528579182015b8281111561152757825182559160200191906001019061150c565b5b5090506115359190611539565b5090565b5b8082111561155257600081600090555060010161153a565b5090565b6000604051905090565b600080fd5b600080fd5b6000819050919050565b61157d8161156a565b811461158857600080fd5b50565b60008135905061159a81611574565b92915050565b600080604083850312156115b7576115b6611560565b5b60006115c58582860161158b565b92505060206115d68582860161158b565b9150509250929050565b6115e98161156a565b82525050565b600060208201905061160460008301846115e0565b92915050565b6000602082840312156116205761161f611560565b5b600061162e8482850161158b565b91505092915050565b600081519050919050565b600082825260208201905092915050565b6000819050602082019050919050565b600081519050919050565b600082825260208201905092915050565b60005b8381101561169d578082015181840152602081019050611682565b838111156116ac576000848401525b50505050565b6000601f19601f8301169050919050565b60006116ce82611663565b6116d8818561166e565b93506116e881856020860161167f565b6116f1816116b2565b840191505092915050565b60008115159050919050565b611711816116fc565b82525050565b6117208161156a565b82525050565b7f4e487b7100000000000000000000000000000000000000000000000000000000600052602160045260246000fd5b6003811061176657611765611726565b5b50565b600081905061177782611755565b919050565b600061178782611769565b9050919050565b6117978161177c565b82525050565b600073ffffffffffffffffffffffffffffffffffffffff82169050919050565b60006117c88261179d565b9050919050565b6117d8816117bd565b82525050565b600060c08301600083015184820360008601526117fb82826116c3565b91505060208301516118106020860182611708565b5060408301516118236040860182611717565b506060830151611836606086018261178e565b50608083015161184960808601826117cf565b5060a083015161185c60a0860182611717565b508091505092915050565b600061187383836117de565b905092915050565b6000602082019050919050565b600061189382611637565b61189d8185611642565b9350836020820285016118af85611653565b8060005b858110156118eb57848403895281516118cc8582611867565b94506118d78361187b565b925060208a019950506001810190506118b3565b50829750879550505050505092915050565b600060208201905081810360008301526119178184611888565b905092915050565b600080fd5b600080fd5b7f4e487b7100000000000000000000000000000000000000000000000000000000600052604160045260246000fd5b611961826116b2565b810181811067ffffffffffffffff821117156119805761197f611929565b5b80604052505050565b6000611993611556565b905061199f8282611958565b919050565b600067ffffffffffffffff8211156119bf576119be611929565b5b6119c8826116b2565b9050602081019050919050565b82818337600083830152505050565b60006119f76119f2846119a4565b611989565b905082815260208101848484011115611a1357611a12611924565b5b611a1e8482856119d5565b509392505050565b600082601f830112611a3b57611a3a61191f565b5b8135611a4b8482602086016119e4565b91505092915050565b600080600060608486031215611a6d57611a6c611560565b5b6000611a7b8682870161158b565b9350506020611a8c8682870161158b565b925050604084013567ffffffffffffffff811115611aad57611aac611565565b5b611ab986828701611a26565b9150509250925092565b60008060408385031215611ada57611ad9611560565b5b600083013567ffffffffffffffff811115611af857611af7611565565b5b611b0485828601611a26565b925050602083013567ffffffffffffffff811115611b2557611b24611565565b5b611b3185828601611a26565b9150509250929050565b60008060408385031215611b5257611b51611560565b5b6000611b608582860161158b565b925050602083013567ffffffffffffffff811115611b8157611b80611565565b5b611b8d85828601611a26565b9150509250929050565b7f4e487b7100000000000000000000000000000000000000000000000000000000600052602260045260246000fd5b60006002820490506001821680611bde57607f821691505b60208210811415611bf257611bf1611b97565b5b50919050565b600082825260208201905092915050565b7f5573657220646f6573206e6f7420657869737400000000000000000000000000600082015250565b6000611c3f601383611bf8565b9150611c4a82611c09565b602082019050919050565b60006020820190508181036000830152611c6e81611c32565b9050919050565b7f496e76616c6964206974656d2049440000000000000000000000000000000000600082015250565b6000611cab600f83611bf8565b9150611cb682611c75565b602082019050919050565b60006020820190508181036000830152611cda81611c9e565b9050919050565b7f4e487b7100000000000000000000000000000000000000000000000000000000600052603260045260246000fd5b7f4974656d20616c72656164792064656c65746564000000000000000000000000600082015250565b6000611d46601483611bf8565b9150611d5182611d10565b602082019050919050565b60006020820190508181036000830152611d7581611d39565b9050919050565b7f4e487b7100000000000000000000000000000000000000000000000000000000600052601160045260246000fd5b6000611db68261156a565b9150611dc18361156a565b925082821015611dd457611dd3611d7c565b5b828203905092915050565b6000611dea8261156a565b9150611df58361156a565b9250827fffffffffffffffffffffffffffffffffffffffffffffffffffffffffffffffff03821115611e2a57611e29611d7c565b5b828201905092915050565b6000611e408261156a565b91507fffffffffffffffffffffffffffffffffffffffffffffffffffffffffffffffff821415611e7357611e72611d7c565b5b600182019050919050565b7f4e487b7100000000000000000000000000000000000000000000000000000000600052603160045260246000fd5b6000611eb88261156a565b91506000821415611ecc57611ecb611d7c565b5b600182039050919050565b7f557365726e616d65206d757374206e6f7420626520656d707479000000000000600082015250565b6000611f0d601a83611bf8565b9150611f1882611ed7565b602082019050919050565b60006020820190508181036000830152611f3c81611f00565b9050919050565b7f50617373776f7264206d757374206e6f7420626520656d707479000000000000600082015250565b6000611f79601a83611bf8565b9150611f8482611f43565b602082019050919050565b60006020820190508181036000830152611fa881611f6c565b9050919050565b7f5573657220616c72656164792065786973747300000000000000000000000000600082015250565b6000611fe5601383611bf8565b9150611ff082611faf565b602082019050919050565b6000602082019050818103600083015261201481611fd8565b9050919050565b7f506c656173652073656e6420736f6d6520657468657220746f2063726561746560008201527f206120746f646f206c6973740000000000000000000000000000000000000000602082015250565b6000612077602c83611bf8565b91506120828261201b565b604082019050919050565b600060208201905081810360008301526120a68161206a565b905091905056fea264697066735822122098c00e8335cfa389c5d87d1129348f42ed9c1e173d069ac817448aa1915026c164736f6c63430008090033",
  "linkReferences": {},
  "deployedLinkReferences": {}
}