{
  "_format": "hh-sol-artifact-1",
  "contractName": "MessagingApp",
  "sourceName": "contracts/MessagingApp.sol",
  "abi": [
    {
      "anonymous": false,
      "inputs": [
        {
          "indexed": true,
          "internalType": "address",
          "name": "sender",
          "type": "address"
        },
        {
          "indexed": true,
          "internalType": "address",
          "name": "receiver",
          "type": "address"
        },
        {
          "indexed": false,
          "internalType": "string",
          "name": "content",
          "type": "string"
        },
        {
          "indexed": false,
          "internalType": "string",
          "name": "imageUrl",
          "type": "string"
        },
        {
          "indexed": false,
          "internalType": "uint256",
          "name": "timestamp",
          "type": "uint256"
        }
      ],
      "name": "MessageSent",
      "type": "event"
    },
    {
      "inputs": [
        {
          "internalType": "address",
          "name": "_sender",
          "type": "address"
        }
      ],
      "name": "getAllReceivers",
      "outputs": [
        {
          "internalType": "address[]",
          "name": "",
          "type": "address[]"
        }
      ],
      "stateMutability": "view",
      "type": "function"
    },
    {
      "inputs": [
        {
          "internalType": "address",
          "name": "_sender",
          "type": "address"
        },
        {
          "internalType": "address",
          "name": "_receiver",
          "type": "address"
        }
      ],
      "name": "getConversation",
      "outputs": [
        {
          "components": [
            {
              "internalType": "address",
              "name": "sender",
              "type": "address"
            },
            {
              "internalType": "address",
              "name": "receiver",
              "type": "address"
            },
            {
              "internalType": "string",
              "name": "content",
              "type": "string"
            },
            {
              "internalType": "string",
              "name": "imageUrl",
              "type": "string"
            },
            {
              "internalType": "uint256",
              "name": "timestamp",
              "type": "uint256"
            }
          ],
          "internalType": "struct MessagingApp.Message[]",
          "name": "",
          "type": "tuple[]"
        }
      ],
      "stateMutability": "view",
      "type": "function"
    },
    {
      "inputs": [
        {
          "internalType": "address",
          "name": "_sender",
          "type": "address"
        },
        {
          "internalType": "address",
          "name": "_receiver",
          "type": "address"
        },
        {
          "internalType": "string",
          "name": "_content",
          "type": "string"
        },
        {
          "internalType": "string",
          "name": "_imageUrl",
          "type": "string"
        }
      ],
      "name": "sendMessage",
      "outputs": [],
      "stateMutability": "nonpayable",
      "type": "function"
    }
  ],
  "bytecode": "0x608060405234801561001057600080fd5b50611047806100206000396000f3fe608060405234801561001057600080fd5b50600436106100415760003560e01c80632b07439f14610046578063375eed271461006257806363f0459514610092575b600080fd5b610060600480360381019061005b9190610a7d565b6100c2565b005b61007c60048036038101906100779190610b1c565b6103b1565b6040516100899190610d4b565b60405180910390f35b6100ac60048036038101906100a79190610d6d565b610666565b6040516100b99190610e49565b60405180910390f35b60006040518060a001604052808673ffffffffffffffffffffffffffffffffffffffff1681526020018573ffffffffffffffffffffffffffffffffffffffff1681526020018481526020018381526020014281525090506000808673ffffffffffffffffffffffffffffffffffffffff1673ffffffffffffffffffffffffffffffffffffffff16815260200190815260200160002060008573ffffffffffffffffffffffffffffffffffffffff1673ffffffffffffffffffffffffffffffffffffffff16815260200190815260200160002081908060018154018082558091505060019003906000526020600020906005020160009091909190915060008201518160000160006101000a81548173ffffffffffffffffffffffffffffffffffffffff021916908373ffffffffffffffffffffffffffffffffffffffff16021790555060208201518160010160006101000a81548173ffffffffffffffffffffffffffffffffffffffff021916908373ffffffffffffffffffffffffffffffffffffffff1602179055506040820151816002019080519060200190610268929190610822565b506060820151816003019080519060200190610285929190610822565b5060808201518160040155505061029c8585610733565b61034157600160008673ffffffffffffffffffffffffffffffffffffffff1673ffffffffffffffffffffffffffffffffffffffff168152602001908152602001600020849080600181540180825580915050600190039060005260206000200160009091909190916101000a81548173ffffffffffffffffffffffffffffffffffffffff021916908373ffffffffffffffffffffffffffffffffffffffff1602179055505b8373ffffffffffffffffffffffffffffffffffffffff168573ffffffffffffffffffffffffffffffffffffffff167fb6e5bea89e5044d66ff49940ba0401db7bec08daacadb6d06705264874a40fea8585426040516103a293929190610ec4565b60405180910390a35050505050565b60606000808473ffffffffffffffffffffffffffffffffffffffff1673ffffffffffffffffffffffffffffffffffffffff16815260200190815260200160002060008373ffffffffffffffffffffffffffffffffffffffff1673ffffffffffffffffffffffffffffffffffffffff168152602001908152602001600020805480602002602001604051908101604052809291908181526020016000905b8282101561065a57838290600052602060002090600502016040518060a00160405290816000820160009054906101000a900473ffffffffffffffffffffffffffffffffffffffff1673ffffffffffffffffffffffffffffffffffffffff1673ffffffffffffffffffffffffffffffffffffffff1681526020016001820160009054906101000a900473ffffffffffffffffffffffffffffffffffffffff1673ffffffffffffffffffffffffffffffffffffffff1673ffffffffffffffffffffffffffffffffffffffff16815260200160028201805461052d90610f38565b80601f016020809104026020016040519081016040528092919081815260200182805461055990610f38565b80156105a65780601f1061057b576101008083540402835291602001916105a6565b820191906000526020600020905b81548152906001019060200180831161058957829003601f168201915b505050505081526020016003820180546105bf90610f38565b80601f01602080910402602001604051908101604052809291908181526020018280546105eb90610f38565b80156106385780601f1061060d57610100808354040283529160200191610638565b820191906000526020600020905b81548152906001019060200180831161061b57829003601f168201915b505050505081526020016004820154815250508152602001906001019061044e565b50505050905092915050565b6060600160008373ffffffffffffffffffffffffffffffffffffffff1673ffffffffffffffffffffffffffffffffffffffff16815260200190815260200160002080548060200260200160405190810160405280929190818152602001828054801561072757602002820191906000526020600020905b8160009054906101000a900473ffffffffffffffffffffffffffffffffffffffff1673ffffffffffffffffffffffffffffffffffffffff16815260200190600101908083116106dd575b50505050509050919050565b600080600160008573ffffffffffffffffffffffffffffffffffffffff1673ffffffffffffffffffffffffffffffffffffffff168152602001908152602001600020905060005b8180549050811015610815578373ffffffffffffffffffffffffffffffffffffffff168282815481106107b0576107af610f6a565b5b9060005260206000200160009054906101000a900473ffffffffffffffffffffffffffffffffffffffff1673ffffffffffffffffffffffffffffffffffffffff1614156108025760019250505061081c565b808061080d90610fc8565b91505061077a565b5060009150505b92915050565b82805461082e90610f38565b90600052602060002090601f0160209004810192826108505760008555610897565b82601f1061086957805160ff1916838001178555610897565b82800160010185558215610897579182015b8281111561089657825182559160200191906001019061087b565b5b5090506108a491906108a8565b5090565b5b808211156108c15760008160009055506001016108a9565b5090565b6000604051905090565b600080fd5b600080fd5b600073ffffffffffffffffffffffffffffffffffffffff82169050919050565b6000610904826108d9565b9050919050565b610914816108f9565b811461091f57600080fd5b50565b6000813590506109318161090b565b92915050565b600080fd5b600080fd5b6000601f19601f8301169050919050565b7f4e487b7100000000000000000000000000000000000000000000000000000000600052604160045260246000fd5b61098a82610941565b810181811067ffffffffffffffff821117156109a9576109a8610952565b5b80604052505050565b60006109bc6108c5565b90506109c88282610981565b919050565b600067ffffffffffffffff8211156109e8576109e7610952565b5b6109f182610941565b9050602081019050919050565b82818337600083830152505050565b6000610a20610a1b846109cd565b6109b2565b905082815260208101848484011115610a3c57610a3b61093c565b5b610a478482856109fe565b509392505050565b600082601f830112610a6457610a63610937565b5b8135610a74848260208601610a0d565b91505092915050565b60008060008060808587031215610a9757610a966108cf565b5b6000610aa587828801610922565b9450506020610ab687828801610922565b935050604085013567ffffffffffffffff811115610ad757610ad66108d4565b5b610ae387828801610a4f565b925050606085013567ffffffffffffffff811115610b0457610b036108d4565b5b610b1087828801610a4f565b91505092959194509250565b60008060408385031215610b3357610b326108cf565b5b6000610b4185828601610922565b9250506020610b5285828601610922565b9150509250929050565b600081519050919050565b600082825260208201905092915050565b6000819050602082019050919050565b610b91816108f9565b82525050565b600081519050919050565b600082825260208201905092915050565b60005b83811015610bd1578082015181840152602081019050610bb6565b83811115610be0576000848401525b50505050565b6000610bf182610b97565b610bfb8185610ba2565b9350610c0b818560208601610bb3565b610c1481610941565b840191505092915050565b6000819050919050565b610c3281610c1f565b82525050565b600060a083016000830151610c506000860182610b88565b506020830151610c636020860182610b88565b5060408301518482036040860152610c7b8282610be6565b91505060608301518482036060860152610c958282610be6565b9150506080830151610caa6080860182610c29565b508091505092915050565b6000610cc18383610c38565b905092915050565b6000602082019050919050565b6000610ce182610b5c565b610ceb8185610b67565b935083602082028501610cfd85610b78565b8060005b85811015610d395784840389528151610d1a8582610cb5565b9450610d2583610cc9565b925060208a01995050600181019050610d01565b50829750879550505050505092915050565b60006020820190508181036000830152610d658184610cd6565b905092915050565b600060208284031215610d8357610d826108cf565b5b6000610d9184828501610922565b91505092915050565b600081519050919050565b600082825260208201905092915050565b6000819050602082019050919050565b6000610dd28383610b88565b60208301905092915050565b6000602082019050919050565b6000610df682610d9a565b610e008185610da5565b9350610e0b83610db6565b8060005b83811015610e3c578151610e238882610dc6565b9750610e2e83610dde565b925050600181019050610e0f565b5085935050505092915050565b60006020820190508181036000830152610e638184610deb565b905092915050565b600082825260208201905092915050565b6000610e8782610b97565b610e918185610e6b565b9350610ea1818560208601610bb3565b610eaa81610941565b840191505092915050565b610ebe81610c1f565b82525050565b60006060820190508181036000830152610ede8186610e7c565b90508181036020830152610ef28185610e7c565b9050610f016040830184610eb5565b949350505050565b7f4e487b7100000000000000000000000000000000000000000000000000000000600052602260045260246000fd5b60006002820490506001821680610f5057607f821691505b60208210811415610f6457610f63610f09565b5b50919050565b7f4e487b7100000000000000000000000000000000000000000000000000000000600052603260045260246000fd5b7f4e487b7100000000000000000000000000000000000000000000000000000000600052601160045260246000fd5b6000610fd382610c1f565b91507fffffffffffffffffffffffffffffffffffffffffffffffffffffffffffffffff82141561100657611005610f99565b5b60018201905091905056fea2646970667358221220dd7e0b1fd0d962bdabaeddc698ca6e32e882259a8be041397442c995ac8012de64736f6c63430008090033",
  "linkReferences": {},
  "deployedLinkReferences": {}
}